{
  "contractName": "Assign",
  "abi": [
    {
      "inputs": [],
      "name": "owner",
      "outputs": [
        {
          "internalType": "address",
          "name": "",
          "type": "address"
        }
      ],
      "stateMutability": "view",
      "type": "function",
      "constant": true
    },
    {
      "inputs": [],
      "name": "patientId",
      "outputs": [
        {
          "internalType": "uint256",
          "name": "",
          "type": "uint256"
        }
      ],
      "stateMutability": "view",
      "type": "function",
      "constant": true
    },
    {
      "inputs": [
        {
          "internalType": "address",
          "name": "id",
          "type": "address"
        },
        {
          "internalType": "string",
          "name": "doctor_name",
          "type": "string"
        },
        {
          "internalType": "address",
          "name": "patient_addr",
          "type": "address"
        }
      ],
      "name": "AssignPatientToDoctor",
      "outputs": [
        {
          "internalType": "bool",
          "name": "",
          "type": "bool"
        }
      ],
      "stateMutability": "nonpayable",
      "type": "function"
    },
    {
      "inputs": [
        {
          "internalType": "address",
          "name": "patient_id",
          "type": "address"
        },
        {
          "internalType": "uint256",
          "name": "index",
          "type": "uint256"
        }
      ],
      "name": "RemovePatientToDoctor",
      "outputs": [
        {
          "internalType": "address",
          "name": "",
          "type": "address"
        }
      ],
      "stateMutability": "nonpayable",
      "type": "function"
    },
    {
      "inputs": [
        {
          "internalType": "address",
          "name": "pId",
          "type": "address"
        }
      ],
      "name": "getPatientsAssignedLength",
      "outputs": [
        {
          "internalType": "uint256",
          "name": "",
          "type": "uint256"
        }
      ],
      "stateMutability": "view",
      "type": "function",
      "constant": true
    },
    {
      "inputs": [],
      "name": "getRole",
      "outputs": [
        {
          "internalType": "string",
          "name": "",
          "type": "string"
        },
        {
          "internalType": "address",
          "name": "",
          "type": "address"
        },
        {
          "internalType": "int256",
          "name": "",
          "type": "int256"
        }
      ],
      "stateMutability": "view",
      "type": "function",
      "constant": true
    },
    {
      "inputs": [
        {
          "internalType": "address",
          "name": "doctor_id",
          "type": "address"
        },
        {
          "internalType": "uint256",
          "name": "index",
          "type": "uint256"
        }
      ],
      "name": "getPatientByDoctor",
      "outputs": [
        {
          "internalType": "address",
          "name": "",
          "type": "address"
        },
        {
          "internalType": "string",
          "name": "",
          "type": "string"
        },
        {
          "internalType": "address",
          "name": "",
          "type": "address"
        }
      ],
      "stateMutability": "view",
      "type": "function",
      "constant": true
    }
  ],
  "bytecode": "0x608060405233600160006101000a81548173ffffffffffffffffffffffffffffffffffffffff021916908373ffffffffffffffffffffffffffffffffffffffff16021790555034801561005157600080fd5b50610faa806100616000396000f3fe608060405234801561001057600080fd5b506004361061007d5760003560e01c80638da5cb5b1161005b5780638da5cb5b14610114578063cf77336c14610132578063e07f444414610162578063fde08174146101805761007d565b80631639f82e146100825780633daa7722146100b25780635a6a471d146100e2575b600080fd5b61009c60048036038101906100979190610ac2565b6101a0565b6040516100a99190610b11565b60405180910390f35b6100cc60048036038101906100c79190610c72565b61026a565b6040516100d99190610cfc565b60405180910390f35b6100fc60048036038101906100f79190610ac2565b61042c565b60405161010b93929190610d9f565b60405180910390f35b61011c6105f9565b6040516101299190610b11565b60405180910390f35b61014c60048036038101906101479190610ddd565b61061f565b6040516101599190610e19565b60405180910390f35b61016a61066a565b6040516101779190610e19565b60405180910390f35b610188610670565b60405161019793929190610e4d565b60405180910390f35b60008060008473ffffffffffffffffffffffffffffffffffffffff1673ffffffffffffffffffffffffffffffffffffffff16815260200190815260200160002082815481106101f2576101f1610e8b565b5b9060005260206000209060030201600080820160006101000a81549073ffffffffffffffffffffffffffffffffffffffff02191690556001820160006102389190610937565b6002820160006101000a81549073ffffffffffffffffffffffffffffffffffffffff0219169055505082905092915050565b60008060405180606001604052808673ffffffffffffffffffffffffffffffffffffffff1681526020018581526020018473ffffffffffffffffffffffffffffffffffffffff16815250905060056000808773ffffffffffffffffffffffffffffffffffffffff1673ffffffffffffffffffffffffffffffffffffffff16815260200190815260200160002080549050101561041f576000808673ffffffffffffffffffffffffffffffffffffffff1673ffffffffffffffffffffffffffffffffffffffff16815260200190815260200160002081908060018154018082558091505060019003906000526020600020906003020160009091909190915060008201518160000160006101000a81548173ffffffffffffffffffffffffffffffffffffffff021916908373ffffffffffffffffffffffffffffffffffffffff16021790555060208201518160010190805190602001906103cb929190610977565b5060408201518160020160006101000a81548173ffffffffffffffffffffffffffffffffffffffff021916908373ffffffffffffffffffffffffffffffffffffffff16021790555050506001915050610425565b60009150505b9392505050565b600060606000806000808773ffffffffffffffffffffffffffffffffffffffff1673ffffffffffffffffffffffffffffffffffffffff168152602001908152602001600020858154811061048357610482610e8b565b5b90600052602060002090600302016040518060600160405290816000820160009054906101000a900473ffffffffffffffffffffffffffffffffffffffff1673ffffffffffffffffffffffffffffffffffffffff1673ffffffffffffffffffffffffffffffffffffffff16815260200160018201805461050290610ee9565b80601f016020809104026020016040519081016040528092919081815260200182805461052e90610ee9565b801561057b5780601f106105505761010080835404028352916020019161057b565b820191906000526020600020905b81548152906001019060200180831161055e57829003601f168201915b505050505081526020016002820160009054906101000a900473ffffffffffffffffffffffffffffffffffffffff1673ffffffffffffffffffffffffffffffffffffffff1673ffffffffffffffffffffffffffffffffffffffff16815250509050806000015181602001518260400151935093509350509250925092565b600160009054906101000a900473ffffffffffffffffffffffffffffffffffffffff1681565b60008060008373ffffffffffffffffffffffffffffffffffffffff1673ffffffffffffffffffffffffffffffffffffffff168152602001908152602001600020805490509050919050565b60025481565b606060008073e4b56c09bdb5b6fc9f18ecdec6c94fcbda70ea0273ffffffffffffffffffffffffffffffffffffffff163373ffffffffffffffffffffffffffffffffffffffff161415610703573360006040518060400160405280600481526020017f524f4f54000000000000000000000000000000000000000000000000000000008152509190925092509250610932565b600360009054906101000a900473ffffffffffffffffffffffffffffffffffffffff1673ffffffffffffffffffffffffffffffffffffffff1663d201256d336040518263ffffffff1660e01b815260040161075e9190610b11565b602060405180830381865afa15801561077b573d6000803e3d6000fd5b505050506040513d601f19601f8201168201806040525081019061079f9190610f47565b156107ea573360026040518060400160405280600781526020017f50415449454e54000000000000000000000000000000000000000000000000008152509190925092509250610932565b600460009054906101000a900473ffffffffffffffffffffffffffffffffffffffff1673ffffffffffffffffffffffffffffffffffffffff1663b2ea1466336040518263ffffffff1660e01b81526004016108459190610b11565b602060405180830381865afa158015610862573d6000803e3d6000fd5b505050506040513d601f19601f820116820180604052508101906108869190610f47565b156108d1573360016040518060400160405280600681526020017f444f43544f5200000000000000000000000000000000000000000000000000008152509190925092509250610932565b337fffffffffffffffffffffffffffffffffffffffffffffffffffffffffffffffff6040518060400160405280600a81526020017f696e76616c69642069640000000000000000000000000000000000000000000081525091909250925092505b909192565b50805461094390610ee9565b6000825580601f106109555750610974565b601f01602090049060005260206000209081019061097391906109fd565b5b50565b82805461098390610ee9565b90600052602060002090601f0160209004810192826109a557600085556109ec565b82601f106109be57805160ff19168380011785556109ec565b828001600101855582156109ec579182015b828111156109eb5782518255916020019190600101906109d0565b5b5090506109f991906109fd565b5090565b5b80821115610a165760008160009055506001016109fe565b5090565b6000604051905090565b600080fd5b600080fd5b600073ffffffffffffffffffffffffffffffffffffffff82169050919050565b6000610a5982610a2e565b9050919050565b610a6981610a4e565b8114610a7457600080fd5b50565b600081359050610a8681610a60565b92915050565b6000819050919050565b610a9f81610a8c565b8114610aaa57600080fd5b50565b600081359050610abc81610a96565b92915050565b60008060408385031215610ad957610ad8610a24565b5b6000610ae785828601610a77565b9250506020610af885828601610aad565b9150509250929050565b610b0b81610a4e565b82525050565b6000602082019050610b266000830184610b02565b92915050565b600080fd5b600080fd5b6000601f19601f8301169050919050565b7f4e487b7100000000000000000000000000000000000000000000000000000000600052604160045260246000fd5b610b7f82610b36565b810181811067ffffffffffffffff82111715610b9e57610b9d610b47565b5b80604052505050565b6000610bb1610a1a565b9050610bbd8282610b76565b919050565b600067ffffffffffffffff821115610bdd57610bdc610b47565b5b610be682610b36565b9050602081019050919050565b82818337600083830152505050565b6000610c15610c1084610bc2565b610ba7565b905082815260208101848484011115610c3157610c30610b31565b5b610c3c848285610bf3565b509392505050565b600082601f830112610c5957610c58610b2c565b5b8135610c69848260208601610c02565b91505092915050565b600080600060608486031215610c8b57610c8a610a24565b5b6000610c9986828701610a77565b935050602084013567ffffffffffffffff811115610cba57610cb9610a29565b5b610cc686828701610c44565b9250506040610cd786828701610a77565b9150509250925092565b60008115159050919050565b610cf681610ce1565b82525050565b6000602082019050610d116000830184610ced565b92915050565b600081519050919050565b600082825260208201905092915050565b60005b83811015610d51578082015181840152602081019050610d36565b83811115610d60576000848401525b50505050565b6000610d7182610d17565b610d7b8185610d22565b9350610d8b818560208601610d33565b610d9481610b36565b840191505092915050565b6000606082019050610db46000830186610b02565b8181036020830152610dc68185610d66565b9050610dd56040830184610b02565b949350505050565b600060208284031215610df357610df2610a24565b5b6000610e0184828501610a77565b91505092915050565b610e1381610a8c565b82525050565b6000602082019050610e2e6000830184610e0a565b92915050565b6000819050919050565b610e4781610e34565b82525050565b60006060820190508181036000830152610e678186610d66565b9050610e766020830185610b02565b610e836040830184610e3e565b949350505050565b7f4e487b7100000000000000000000000000000000000000000000000000000000600052603260045260246000fd5b7f4e487b7100000000000000000000000000000000000000000000000000000000600052602260045260246000fd5b60006002820490506001821680610f0157607f821691505b60208210811415610f1557610f14610eba565b5b50919050565b610f2481610ce1565b8114610f2f57600080fd5b50565b600081519050610f4181610f1b565b92915050565b600060208284031215610f5d57610f5c610a24565b5b6000610f6b84828501610f32565b9150509291505056fea2646970667358221220c8f3388ec6f10177907814862597c9cc34d571e07c3eb05bb2b83002c2e605b364736f6c634300080a0033",
  "immutableReferences": {},
  "source": "// SPDX-License-Identifier: MIT\r\npragma solidity >=0.4.22 <0.9.0;\r\n\r\nimport \"./Patient.sol\";\r\nimport \"./Doctor.sol\";\r\n\r\ncontract Assign {\r\n    mapping(address=>  DoctorAssign[]) allAssignedPatients;\r\n    address public owner = msg.sender;\r\n      uint public patientId;\r\n\r\n  \r\n\r\n  Patient patient;\r\n  Doctor doctor;\r\n  \r\n  \r\n    function AssignPatientToDoctor(address id,string memory doctor_name,address patient_addr) public returns(bool) {\r\n        DoctorAssign memory AData= DoctorAssign(id,doctor_name,patient_addr);\r\n        if(allAssignedPatients[id].length<5){\r\n            allAssignedPatients[id].push(AData);\r\n            return true;\r\n        }\r\n        return false;\r\n    }\r\n\r\n       function RemovePatientToDoctor(address patient_id,uint index) public returns(address) {\r\n       delete allAssignedPatients[patient_id][index];\r\n        return patient_id;\r\n       }\r\n\r\n    function getPatientsAssignedLength(address pId) public view returns(uint) {\r\n        return allAssignedPatients[pId].length;\r\n    }\r\n\r\n    function getRole() public view returns (string memory,address,int){\r\n        if(msg.sender==0xE4B56c09BdB5b6fc9F18eCdEc6C94FcbdA70Ea02) {\r\n            return (\"ROOT\",msg.sender,0);\r\n        }\r\n        else if ( patient.isValidPatient(msg.sender) ) {\r\n            return (\"PATIENT\",msg.sender,2);\r\n        }\r\n        else if ( doctor.isDoctorValid(msg.sender) ) {\r\n            return (\"DOCTOR\",msg.sender,1);\r\n        }\r\n        else return (\"invalid id\",msg.sender,-1);\r\n    } \r\n\r\n    function getPatientByDoctor(address doctor_id,uint index) public view returns (address,string memory,address){\r\n        DoctorAssign memory DAssign= allAssignedPatients[doctor_id][index];\r\n        return (DAssign._id,DAssign.doctorName,DAssign.patient);\r\n    }\r\n    \r\n \r\n}\r\n\r\n\r\nstruct DoctorAssign {\r\n    address _id;\r\n    string doctorName;\r\n    address patient ;\r\n}\r\n\r\n/* \r\n\r\n1001:[\r\n    {\r\n        uint _id;\r\n    string patientName;\r\n    string age;\r\n    string gender;\r\n    string bloodGroup;\r\n    string Address;\r\n    string hospital;\r\n    string device_id;\r\n        }\r\n]\r\n\r\n*/",
  "sourcePath": "D:\\Health BlockChain\\contracts\\contracts\\Assign.sol",
  "compiler": {
    "name": "solc",
    "version": "0.8.10+commit.fc410830.Emscripten.clang"
  },
  "schemaVersion": "3.4.7",
  "updatedAt": "2022-06-05T09:41:01.826Z",
  "networkType": "ethereum",
  "devdoc": {
    "kind": "dev",
    "methods": {},
    "version": 1
  },
  "userdoc": {
    "kind": "user",
    "methods": {},
    "version": 1
  }
}