{
  "contractName": "Doctor",
  "abi": [
    {
      "inputs": [],
      "name": "owner",
      "outputs": [
        {
          "internalType": "address",
          "name": "",
          "type": "address"
        }
      ],
      "stateMutability": "view",
      "type": "function",
      "constant": true
    },
    {
      "inputs": [],
      "name": "patientId",
      "outputs": [
        {
          "internalType": "uint256",
          "name": "",
          "type": "uint256"
        }
      ],
      "stateMutability": "view",
      "type": "function",
      "constant": true
    },
    {
      "inputs": [],
      "name": "getPatientId",
      "outputs": [
        {
          "internalType": "uint256",
          "name": "",
          "type": "uint256"
        }
      ],
      "stateMutability": "nonpayable",
      "type": "function"
    },
    {
      "inputs": [
        {
          "internalType": "address",
          "name": "pId",
          "type": "address"
        },
        {
          "internalType": "string",
          "name": "name",
          "type": "string"
        },
        {
          "internalType": "string",
          "name": "age",
          "type": "string"
        },
        {
          "internalType": "string",
          "name": "gender",
          "type": "string"
        },
        {
          "internalType": "string",
          "name": "bloodGrp",
          "type": "string"
        },
        {
          "internalType": "string",
          "name": "hosp",
          "type": "string"
        },
        {
          "internalType": "string",
          "name": "addr",
          "type": "string"
        },
        {
          "internalType": "string",
          "name": "device_id",
          "type": "string"
        },
        {
          "internalType": "string",
          "name": "doctor",
          "type": "string"
        }
      ],
      "name": "addDoctor",
      "outputs": [
        {
          "internalType": "address",
          "name": "",
          "type": "address"
        }
      ],
      "stateMutability": "nonpayable",
      "type": "function"
    },
    {
      "inputs": [
        {
          "internalType": "address",
          "name": "patId",
          "type": "address"
        }
      ],
      "name": "getDcotor",
      "outputs": [
        {
          "internalType": "address",
          "name": "",
          "type": "address"
        },
        {
          "internalType": "string",
          "name": "",
          "type": "string"
        },
        {
          "internalType": "string",
          "name": "",
          "type": "string"
        },
        {
          "internalType": "string",
          "name": "",
          "type": "string"
        },
        {
          "internalType": "string",
          "name": "",
          "type": "string"
        },
        {
          "internalType": "string",
          "name": "",
          "type": "string"
        },
        {
          "internalType": "string",
          "name": "",
          "type": "string"
        },
        {
          "internalType": "string",
          "name": "",
          "type": "string"
        },
        {
          "internalType": "string",
          "name": "",
          "type": "string"
        },
        {
          "internalType": "uint256",
          "name": "",
          "type": "uint256"
        }
      ],
      "stateMutability": "view",
      "type": "function",
      "constant": true
    },
    {
      "inputs": [
        {
          "internalType": "address",
          "name": "docId",
          "type": "address"
        }
      ],
      "name": "isDoctorValid",
      "outputs": [
        {
          "internalType": "bool",
          "name": "",
          "type": "bool"
        }
      ],
      "stateMutability": "view",
      "type": "function",
      "constant": true
    }
  ],
  "bytecode": "0x608060405233600260006101000a81548173ffffffffffffffffffffffffffffffffffffffff021916908373ffffffffffffffffffffffffffffffffffffffff16021790555034801561005157600080fd5b50611112806100616000396000f3fe608060405234801561001057600080fd5b50600436106100625760003560e01c80638da5cb5b14610067578063b2ea146614610085578063b9da0dcb146100b5578063baf1f7be146100e5578063e07f44441461011e578063e68798791461013c575b600080fd5b61006f61015a565b60405161007c9190610ac5565b60405180910390f35b61009f600480360381019061009a9190610b20565b610180565b6040516100ac9190610b68565b60405180910390f35b6100cf60048036038101906100ca9190610cc9565b61022a565b6040516100dc9190610ac5565b60405180910390f35b6100ff60048036038101906100fa9190610b20565b61041a565b6040516101159a99989796959493929190610f14565b60405180910390f35b6101266109bd565b6040516101339190610fe8565b60405180910390f35b6101446109c3565b6040516101519190610fe8565b60405180910390f35b600260009054906101000a900473ffffffffffffffffffffffffffffffffffffffff1681565b60008173ffffffffffffffffffffffffffffffffffffffff166000808473ffffffffffffffffffffffffffffffffffffffff1673ffffffffffffffffffffffffffffffffffffffff16815260200190815260200160002060000160009054906101000a900473ffffffffffffffffffffffffffffffffffffffff1673ffffffffffffffffffffffffffffffffffffffff1614156102205760019050610225565b600090505b919050565b6000806040518061014001604052808c73ffffffffffffffffffffffffffffffffffffffff1681526020018b81526020018a815260200189815260200188815260200187815260200186815260200185815260200184815260200160018152509050806000808d73ffffffffffffffffffffffffffffffffffffffff1673ffffffffffffffffffffffffffffffffffffffff16815260200190815260200160002060008201518160000160006101000a81548173ffffffffffffffffffffffffffffffffffffffff021916908373ffffffffffffffffffffffffffffffffffffffff160217905550602082015181600101908051906020019061032e9291906109e1565b50604082015181600201908051906020019061034b9291906109e1565b5060608201518160030190805190602001906103689291906109e1565b5060808201518160040190805190602001906103859291906109e1565b5060a08201518160050190805190602001906103a29291906109e1565b5060c08201518160060190805190602001906103bf9291906109e1565b5060e08201518160070190805190602001906103dc9291906109e1565b506101008201518160080190805190602001906103fa9291906109e1565b5061012082015181600901559050508a9150509998505050505050505050565b60006060806060806060806060806000806000808d73ffffffffffffffffffffffffffffffffffffffff1673ffffffffffffffffffffffffffffffffffffffff168152602001908152602001600020604051806101400160405290816000820160009054906101000a900473ffffffffffffffffffffffffffffffffffffffff1673ffffffffffffffffffffffffffffffffffffffff1673ffffffffffffffffffffffffffffffffffffffff1681526020016001820180546104db90611032565b80601f016020809104026020016040519081016040528092919081815260200182805461050790611032565b80156105545780601f1061052957610100808354040283529160200191610554565b820191906000526020600020905b81548152906001019060200180831161053757829003601f168201915b5050505050815260200160028201805461056d90611032565b80601f016020809104026020016040519081016040528092919081815260200182805461059990611032565b80156105e65780601f106105bb576101008083540402835291602001916105e6565b820191906000526020600020905b8154815290600101906020018083116105c957829003601f168201915b505050505081526020016003820180546105ff90611032565b80601f016020809104026020016040519081016040528092919081815260200182805461062b90611032565b80156106785780601f1061064d57610100808354040283529160200191610678565b820191906000526020600020905b81548152906001019060200180831161065b57829003601f168201915b5050505050815260200160048201805461069190611032565b80601f01602080910402602001604051908101604052809291908181526020018280546106bd90611032565b801561070a5780601f106106df5761010080835404028352916020019161070a565b820191906000526020600020905b8154815290600101906020018083116106ed57829003601f168201915b5050505050815260200160058201805461072390611032565b80601f016020809104026020016040519081016040528092919081815260200182805461074f90611032565b801561079c5780601f106107715761010080835404028352916020019161079c565b820191906000526020600020905b81548152906001019060200180831161077f57829003601f168201915b505050505081526020016006820180546107b590611032565b80601f01602080910402602001604051908101604052809291908181526020018280546107e190611032565b801561082e5780601f106108035761010080835404028352916020019161082e565b820191906000526020600020905b81548152906001019060200180831161081157829003601f168201915b5050505050815260200160078201805461084790611032565b80601f016020809104026020016040519081016040528092919081815260200182805461087390611032565b80156108c05780601f10610895576101008083540402835291602001916108c0565b820191906000526020600020905b8154815290600101906020018083116108a357829003601f168201915b505050505081526020016008820180546108d990611032565b80601f016020809104026020016040519081016040528092919081815260200182805461090590611032565b80156109525780601f1061092757610100808354040283529160200191610952565b820191906000526020600020905b81548152906001019060200180831161093557829003601f168201915b505050505081526020016009820154815250509050806000015181602001518260400151836060015184608001518560a001518660c001518760e001518861010001518961012001519a509a509a509a509a509a509a509a509a509a50509193959799509193959799565b60035481565b6000600360008154809291906109d890611093565b91905055905090565b8280546109ed90611032565b90600052602060002090601f016020900481019282610a0f5760008555610a56565b82601f10610a2857805160ff1916838001178555610a56565b82800160010185558215610a56579182015b82811115610a55578251825591602001919060010190610a3a565b5b509050610a639190610a67565b5090565b5b80821115610a80576000816000905550600101610a68565b5090565b600073ffffffffffffffffffffffffffffffffffffffff82169050919050565b6000610aaf82610a84565b9050919050565b610abf81610aa4565b82525050565b6000602082019050610ada6000830184610ab6565b92915050565b6000604051905090565b600080fd5b600080fd5b610afd81610aa4565b8114610b0857600080fd5b50565b600081359050610b1a81610af4565b92915050565b600060208284031215610b3657610b35610aea565b5b6000610b4484828501610b0b565b91505092915050565b60008115159050919050565b610b6281610b4d565b82525050565b6000602082019050610b7d6000830184610b59565b92915050565b600080fd5b600080fd5b6000601f19601f8301169050919050565b7f4e487b7100000000000000000000000000000000000000000000000000000000600052604160045260246000fd5b610bd682610b8d565b810181811067ffffffffffffffff82111715610bf557610bf4610b9e565b5b80604052505050565b6000610c08610ae0565b9050610c148282610bcd565b919050565b600067ffffffffffffffff821115610c3457610c33610b9e565b5b610c3d82610b8d565b9050602081019050919050565b82818337600083830152505050565b6000610c6c610c6784610c19565b610bfe565b905082815260208101848484011115610c8857610c87610b88565b5b610c93848285610c4a565b509392505050565b600082601f830112610cb057610caf610b83565b5b8135610cc0848260208601610c59565b91505092915050565b60008060008060008060008060006101208a8c031215610cec57610ceb610aea565b5b6000610cfa8c828d01610b0b565b99505060208a013567ffffffffffffffff811115610d1b57610d1a610aef565b5b610d278c828d01610c9b565b98505060408a013567ffffffffffffffff811115610d4857610d47610aef565b5b610d548c828d01610c9b565b97505060608a013567ffffffffffffffff811115610d7557610d74610aef565b5b610d818c828d01610c9b565b96505060808a013567ffffffffffffffff811115610da257610da1610aef565b5b610dae8c828d01610c9b565b95505060a08a013567ffffffffffffffff811115610dcf57610dce610aef565b5b610ddb8c828d01610c9b565b94505060c08a013567ffffffffffffffff811115610dfc57610dfb610aef565b5b610e088c828d01610c9b565b93505060e08a013567ffffffffffffffff811115610e2957610e28610aef565b5b610e358c828d01610c9b565b9250506101008a013567ffffffffffffffff811115610e5757610e56610aef565b5b610e638c828d01610c9b565b9150509295985092959850929598565b600081519050919050565b600082825260208201905092915050565b60005b83811015610ead578082015181840152602081019050610e92565b83811115610ebc576000848401525b50505050565b6000610ecd82610e73565b610ed78185610e7e565b9350610ee7818560208601610e8f565b610ef081610b8d565b840191505092915050565b6000819050919050565b610f0e81610efb565b82525050565b600061014082019050610f2a600083018d610ab6565b8181036020830152610f3c818c610ec2565b90508181036040830152610f50818b610ec2565b90508181036060830152610f64818a610ec2565b90508181036080830152610f788189610ec2565b905081810360a0830152610f8c8188610ec2565b905081810360c0830152610fa08187610ec2565b905081810360e0830152610fb48186610ec2565b9050818103610100830152610fc98185610ec2565b9050610fd9610120830184610f05565b9b9a5050505050505050505050565b6000602082019050610ffd6000830184610f05565b92915050565b7f4e487b7100000000000000000000000000000000000000000000000000000000600052602260045260246000fd5b6000600282049050600182168061104a57607f821691505b6020821081141561105e5761105d611003565b5b50919050565b7f4e487b7100000000000000000000000000000000000000000000000000000000600052601160045260246000fd5b600061109e82610efb565b91507fffffffffffffffffffffffffffffffffffffffffffffffffffffffffffffffff8214156110d1576110d0611064565b5b60018201905091905056fea26469706673582212207d8414ee650573c0fb52f551c87a65d843b81681976ef03f962c15478f33912664736f6c634300080a0033",
  "immutableReferences": {},
  "source": "// SPDX-License-Identifier: MIT\r\npragma solidity >=0.4.22 <0.9.0;\r\n\r\nimport \"./Patient.sol\";\r\n\r\ncontract Doctor {\r\n    mapping(address=>DoctorData) allDoctors;\r\n    mapping (string=>PatientData) allPatients;\r\n    address public owner = msg.sender;\r\n      uint public patientId;\r\n\r\n  function getPatientId() public returns (uint) {\r\n    return patientId++;\r\n  }\r\n\r\n  Patient patient;\r\n  \r\n    function addDoctor(address pId,string memory name,string memory age,string memory gender,string memory bloodGrp,string memory hosp,string memory addr,string memory device_id,string memory doctor) public returns(address){\r\n      DoctorData memory Ddata=DoctorData(pId,name,age,gender,bloodGrp,hosp,addr,device_id,doctor,1);\r\n      allDoctors[pId]=(Ddata);\r\n      return pId;\r\n  }\r\n\r\n    function getDcotor(address  patId) public view returns ( address ,string memory  ,string memory ,string memory ,string memory ,string memory ,string memory ,string memory,string memory,uint) {\r\n     DoctorData memory Ddata=allDoctors[patId];\r\n     return ( Ddata._id,Ddata.doctorName,Ddata.age,Ddata.gender,Ddata.bloodGroup,Ddata.Address,Ddata.hospital,Ddata.device_id,Ddata.doctorAssigned,Ddata.role);\r\n }\r\n\r\n function isDoctorValid(address docId) public view returns (bool){\r\n     if(allDoctors[docId]._id==docId)return true;\r\n     else return false;\r\n }\r\n \r\n \r\n}\r\n\r\n\r\nstruct DoctorData {\r\n    address _id;\r\n    string doctorName;\r\n    string age;\r\n    string gender;\r\n    string bloodGroup;\r\n    string Address;\r\n    string hospital;\r\n    string device_id;\r\n    string doctorAssigned;\r\n    uint role;\r\n}\r\n\r\n/* \r\n\r\n1001:[\r\n    {\r\n        uint _id;\r\n    string patientName;\r\n    string age;\r\n    string gender;\r\n    string bloodGroup;\r\n    string Address;\r\n    string hospital;\r\n    string device_id;\r\n        }\r\n]\r\n\r\n*/",
  "sourcePath": "D:\\Health BlockChain\\health\\contracts\\contracts\\Doctor.sol",
  "compiler": {
    "name": "solc",
    "version": "0.8.10+commit.fc410830.Emscripten.clang"
  },
  "schemaVersion": "3.4.7",
  "updatedAt": "2022-04-17T19:41:54.771Z",
  "networkType": "ethereum",
  "devdoc": {
    "kind": "dev",
    "methods": {},
    "version": 1
  },
  "userdoc": {
    "kind": "user",
    "methods": {},
    "version": 1
  }
}