{
  "contractName": "Assign",
  "abi": [
    {
      "inputs": [],
      "name": "owner",
      "outputs": [
        {
          "internalType": "address",
          "name": "",
          "type": "address"
        }
      ],
      "stateMutability": "view",
      "type": "function",
      "constant": true
    },
    {
      "inputs": [],
      "name": "patientId",
      "outputs": [
        {
          "internalType": "uint256",
          "name": "",
          "type": "uint256"
        }
      ],
      "stateMutability": "view",
      "type": "function",
      "constant": true
    },
    {
      "inputs": [
        {
          "internalType": "address",
          "name": "id",
          "type": "address"
        },
        {
          "internalType": "string",
          "name": "doctor_name",
          "type": "string"
        },
        {
          "internalType": "address",
          "name": "patient_addr",
          "type": "address"
        }
      ],
      "name": "AssignPatientToDoctor",
      "outputs": [
        {
          "internalType": "bool",
          "name": "",
          "type": "bool"
        }
      ],
      "stateMutability": "nonpayable",
      "type": "function"
    },
    {
      "inputs": [
        {
          "internalType": "address",
          "name": "patient_id",
          "type": "address"
        },
        {
          "internalType": "uint256",
          "name": "index",
          "type": "uint256"
        }
      ],
      "name": "RemovePatientToDoctor",
      "outputs": [
        {
          "internalType": "address",
          "name": "",
          "type": "address"
        }
      ],
      "stateMutability": "nonpayable",
      "type": "function"
    },
    {
      "inputs": [
        {
          "internalType": "address",
          "name": "pId",
          "type": "address"
        }
      ],
      "name": "getPatientsAssignedLength",
      "outputs": [
        {
          "internalType": "uint256",
          "name": "",
          "type": "uint256"
        }
      ],
      "stateMutability": "view",
      "type": "function",
      "constant": true
    },
    {
      "inputs": [
        {
          "internalType": "address",
          "name": "id",
          "type": "address"
        }
      ],
      "name": "getRole",
      "outputs": [
        {
          "internalType": "string",
          "name": "",
          "type": "string"
        },
        {
          "internalType": "address",
          "name": "",
          "type": "address"
        },
        {
          "internalType": "int256",
          "name": "",
          "type": "int256"
        }
      ],
      "stateMutability": "view",
      "type": "function",
      "constant": true
    }
  ],
  "bytecode": "0x608060405233600260006101000a81548173ffffffffffffffffffffffffffffffffffffffff021916908373ffffffffffffffffffffffffffffffffffffffff16021790555034801561005157600080fd5b50610eae806100616000396000f3fe608060405234801561001057600080fd5b50600436106100625760003560e01c80631639f82e146100675780633daa77221461009757806344276733146100c75780638da5cb5b146100f9578063cf77336c14610117578063e07f444414610147575b600080fd5b610081600480360381019061007c9190610a04565b610165565b60405161008e9190610a53565b60405180910390f35b6100b160048036038101906100ac9190610bb4565b61022f565b6040516100be9190610c3e565b60405180910390f35b6100e160048036038101906100dc9190610c59565b610539565b6040516100f093929190610d27565b60405180910390f35b610101610802565b60405161010e9190610a53565b60405180910390f35b610131600480360381019061012c9190610c59565b610828565b60405161013e9190610d74565b60405180910390f35b61014f610873565b60405161015c9190610d74565b60405180910390f35b60008060008473ffffffffffffffffffffffffffffffffffffffff1673ffffffffffffffffffffffffffffffffffffffff16815260200190815260200160002082815481106101b7576101b6610d8f565b5b9060005260206000209060030201600080820160006101000a81549073ffffffffffffffffffffffffffffffffffffffff02191690556001820160006101fd9190610879565b6002820160006101000a81549073ffffffffffffffffffffffffffffffffffffffff0219169055505082905092915050565b60008060405180606001604052808673ffffffffffffffffffffffffffffffffffffffff1681526020018581526020018473ffffffffffffffffffffffffffffffffffffffff168152509050600560009054906101000a900473ffffffffffffffffffffffffffffffffffffffff1673ffffffffffffffffffffffffffffffffffffffff1663b2ea1466866040518263ffffffff1660e01b81526004016102d69190610a53565b602060405180830381865afa1580156102f3573d6000803e3d6000fd5b505050506040513d601f19601f820116820180604052508101906103179190610dea565b80156103bb5750600460009054906101000a900473ffffffffffffffffffffffffffffffffffffffff1673ffffffffffffffffffffffffffffffffffffffff1663d201256d846040518263ffffffff1660e01b81526004016103799190610a53565b602060405180830381865afa158015610396573d6000803e3d6000fd5b505050506040513d601f19601f820116820180604052508101906103ba9190610dea565b5b8015610408575060056000808773ffffffffffffffffffffffffffffffffffffffff1673ffffffffffffffffffffffffffffffffffffffff16815260200190815260200160002080549050105b1561052c576000808673ffffffffffffffffffffffffffffffffffffffff1673ffffffffffffffffffffffffffffffffffffffff16815260200190815260200160002081908060018154018082558091505060019003906000526020600020906003020160009091909190915060008201518160000160006101000a81548173ffffffffffffffffffffffffffffffffffffffff021916908373ffffffffffffffffffffffffffffffffffffffff16021790555060208201518160010190805190602001906104d89291906108b9565b5060408201518160020160006101000a81548173ffffffffffffffffffffffffffffffffffffffff021916908373ffffffffffffffffffffffffffffffffffffffff16021790555050506001915050610532565b60009150505b9392505050565b60606000807361ad97cc2c283d1c5a605ad88222ec8bb7931ff673ffffffffffffffffffffffffffffffffffffffff168473ffffffffffffffffffffffffffffffffffffffff1614156105cc578360006040518060400160405280600481526020017f524f4f540000000000000000000000000000000000000000000000000000000081525091909250925092506107fb565b600460009054906101000a900473ffffffffffffffffffffffffffffffffffffffff1673ffffffffffffffffffffffffffffffffffffffff1663d201256d856040518263ffffffff1660e01b81526004016106279190610a53565b602060405180830381865afa158015610644573d6000803e3d6000fd5b505050506040513d601f19601f820116820180604052508101906106689190610dea565b156106b3578360026040518060400160405280600781526020017f50415449454e540000000000000000000000000000000000000000000000000081525091909250925092506107fb565b600560009054906101000a900473ffffffffffffffffffffffffffffffffffffffff1673ffffffffffffffffffffffffffffffffffffffff1663b2ea1466856040518263ffffffff1660e01b815260040161070e9190610a53565b602060405180830381865afa15801561072b573d6000803e3d6000fd5b505050506040513d601f19601f8201168201806040525081019061074f9190610dea565b1561079a578360016040518060400160405280600681526020017f444f43544f52000000000000000000000000000000000000000000000000000081525091909250925092506107fb565b837fffffffffffffffffffffffffffffffffffffffffffffffffffffffffffffffff6040518060400160405280600a81526020017f696e76616c69642069640000000000000000000000000000000000000000000081525091909250925092505b9193909250565b600260009054906101000a900473ffffffffffffffffffffffffffffffffffffffff1681565b60008060008373ffffffffffffffffffffffffffffffffffffffff1673ffffffffffffffffffffffffffffffffffffffff168152602001908152602001600020805490509050919050565b60035481565b50805461088590610e46565b6000825580601f1061089757506108b6565b601f0160209004906000526020600020908101906108b5919061093f565b5b50565b8280546108c590610e46565b90600052602060002090601f0160209004810192826108e7576000855561092e565b82601f1061090057805160ff191683800117855561092e565b8280016001018555821561092e579182015b8281111561092d578251825591602001919060010190610912565b5b50905061093b919061093f565b5090565b5b80821115610958576000816000905550600101610940565b5090565b6000604051905090565b600080fd5b600080fd5b600073ffffffffffffffffffffffffffffffffffffffff82169050919050565b600061099b82610970565b9050919050565b6109ab81610990565b81146109b657600080fd5b50565b6000813590506109c8816109a2565b92915050565b6000819050919050565b6109e1816109ce565b81146109ec57600080fd5b50565b6000813590506109fe816109d8565b92915050565b60008060408385031215610a1b57610a1a610966565b5b6000610a29858286016109b9565b9250506020610a3a858286016109ef565b9150509250929050565b610a4d81610990565b82525050565b6000602082019050610a686000830184610a44565b92915050565b600080fd5b600080fd5b6000601f19601f8301169050919050565b7f4e487b7100000000000000000000000000000000000000000000000000000000600052604160045260246000fd5b610ac182610a78565b810181811067ffffffffffffffff82111715610ae057610adf610a89565b5b80604052505050565b6000610af361095c565b9050610aff8282610ab8565b919050565b600067ffffffffffffffff821115610b1f57610b1e610a89565b5b610b2882610a78565b9050602081019050919050565b82818337600083830152505050565b6000610b57610b5284610b04565b610ae9565b905082815260208101848484011115610b7357610b72610a73565b5b610b7e848285610b35565b509392505050565b600082601f830112610b9b57610b9a610a6e565b5b8135610bab848260208601610b44565b91505092915050565b600080600060608486031215610bcd57610bcc610966565b5b6000610bdb868287016109b9565b935050602084013567ffffffffffffffff811115610bfc57610bfb61096b565b5b610c0886828701610b86565b9250506040610c19868287016109b9565b9150509250925092565b60008115159050919050565b610c3881610c23565b82525050565b6000602082019050610c536000830184610c2f565b92915050565b600060208284031215610c6f57610c6e610966565b5b6000610c7d848285016109b9565b91505092915050565b600081519050919050565b600082825260208201905092915050565b60005b83811015610cc0578082015181840152602081019050610ca5565b83811115610ccf576000848401525b50505050565b6000610ce082610c86565b610cea8185610c91565b9350610cfa818560208601610ca2565b610d0381610a78565b840191505092915050565b6000819050919050565b610d2181610d0e565b82525050565b60006060820190508181036000830152610d418186610cd5565b9050610d506020830185610a44565b610d5d6040830184610d18565b949350505050565b610d6e816109ce565b82525050565b6000602082019050610d896000830184610d65565b92915050565b7f4e487b7100000000000000000000000000000000000000000000000000000000600052603260045260246000fd5b610dc781610c23565b8114610dd257600080fd5b50565b600081519050610de481610dbe565b92915050565b600060208284031215610e0057610dff610966565b5b6000610e0e84828501610dd5565b91505092915050565b7f4e487b7100000000000000000000000000000000000000000000000000000000600052602260045260246000fd5b60006002820490506001821680610e5e57607f821691505b60208210811415610e7257610e71610e17565b5b5091905056fea26469706673582212204eb272cfc859ab2ef171d623977cdaa9bd524513248fc769697b72e1a765e26a64736f6c634300080a0033",
  "immutableReferences": {},
  "source": "// SPDX-License-Identifier: MIT\r\npragma solidity >=0.4.22 <0.9.0;\r\n\r\nimport \"./Patient.sol\";\r\nimport \"./Doctor.sol\";\r\n\r\ncontract Assign {\r\n    mapping(address=>  DoctorAssign[]) allAssignedPatients;\r\n    mapping (string=>PatientData) allPatients;\r\n    address public owner = msg.sender;\r\n      uint public patientId;\r\n\r\n  \r\n\r\n  Patient patient;\r\n  Doctor doctor;\r\n  \r\n    function AssignPatientToDoctor(address id,string memory doctor_name,address patient_addr) public returns(bool) {\r\n        DoctorAssign memory AData= DoctorAssign(id,doctor_name,patient_addr);\r\n        if(doctor.isDoctorValid(id)&&patient.isValidPatient(patient_addr)&&allAssignedPatients[id].length<5){\r\n            allAssignedPatients[id].push(AData);\r\n            return true;\r\n        }\r\n        return false;\r\n    }\r\n\r\n       function RemovePatientToDoctor(address patient_id,uint index) public returns(address) {\r\n       delete allAssignedPatients[patient_id][index];\r\n        return patient_id;\r\n       }\r\n\r\n    function getPatientsAssignedLength(address pId) public view returns(uint) {\r\n        return allAssignedPatients[pId].length;\r\n    }\r\n\r\n    function getRole(address id) public view returns (string memory,address,int){\r\n        if(id==0x61aD97cc2c283D1C5a605ad88222EC8bB7931FF6) return (\"ROOT\",id,0);\r\n        else if(patient.isValidPatient(id)) return (\"PATIENT\",id,2);\r\n        else if (doctor.isDoctorValid(id)) return (\"DOCTOR\",id,1);\r\n        else return (\"invalid id\",id,-1);\r\n    }\r\n \r\n}\r\n\r\n\r\nstruct DoctorAssign {\r\n    address _id;\r\n    string doctorName;\r\n    address patient ;\r\n}\r\n\r\n/* \r\n\r\n1001:[\r\n    {\r\n        uint _id;\r\n    string patientName;\r\n    string age;\r\n    string gender;\r\n    string bloodGroup;\r\n    string Address;\r\n    string hospital;\r\n    string device_id;\r\n        }\r\n]\r\n\r\n*/",
  "sourcePath": "D:\\Health BlockChain\\backend\\contracts\\Assign.sol",
  "compiler": {
    "name": "solc",
    "version": "0.8.10+commit.fc410830.Emscripten.clang"
  },
  "schemaVersion": "3.4.7",
  "updatedAt": "2022-04-17T17:58:52.601Z",
  "networkType": "ethereum",
  "devdoc": {
    "kind": "dev",
    "methods": {},
    "version": 1
  },
  "userdoc": {
    "kind": "user",
    "methods": {},
    "version": 1
  }
}