{
  "contractName": "Doctor",
  "abi": [
    {
      "inputs": [
        {
          "internalType": "address",
          "name": "",
          "type": "address"
        }
      ],
      "name": "allDoctors",
      "outputs": [
        {
          "internalType": "address",
          "name": "_id",
          "type": "address"
        },
        {
          "internalType": "string",
          "name": "doctorName",
          "type": "string"
        },
        {
          "internalType": "string",
          "name": "age",
          "type": "string"
        },
        {
          "internalType": "string",
          "name": "gender",
          "type": "string"
        },
        {
          "internalType": "string",
          "name": "bloodGroup",
          "type": "string"
        },
        {
          "internalType": "string",
          "name": "Address",
          "type": "string"
        },
        {
          "internalType": "string",
          "name": "hospital",
          "type": "string"
        },
        {
          "internalType": "uint256",
          "name": "role",
          "type": "uint256"
        }
      ],
      "stateMutability": "view",
      "type": "function",
      "constant": true
    },
    {
      "inputs": [],
      "name": "owner",
      "outputs": [
        {
          "internalType": "address",
          "name": "",
          "type": "address"
        }
      ],
      "stateMutability": "view",
      "type": "function",
      "constant": true
    },
    {
      "inputs": [
        {
          "internalType": "uint256",
          "name": "i",
          "type": "uint256"
        }
      ],
      "name": "getDoctorId",
      "outputs": [
        {
          "internalType": "address",
          "name": "",
          "type": "address"
        }
      ],
      "stateMutability": "view",
      "type": "function",
      "constant": true
    },
    {
      "inputs": [
        {
          "internalType": "address",
          "name": "dId",
          "type": "address"
        },
        {
          "internalType": "string",
          "name": "name",
          "type": "string"
        },
        {
          "internalType": "string",
          "name": "age",
          "type": "string"
        },
        {
          "internalType": "string",
          "name": "gender",
          "type": "string"
        },
        {
          "internalType": "string",
          "name": "bloodGrp",
          "type": "string"
        },
        {
          "internalType": "string",
          "name": "hosp",
          "type": "string"
        },
        {
          "internalType": "string",
          "name": "addr",
          "type": "string"
        }
      ],
      "name": "addDoctor",
      "outputs": [
        {
          "internalType": "address",
          "name": "",
          "type": "address"
        }
      ],
      "stateMutability": "nonpayable",
      "type": "function"
    },
    {
      "inputs": [
        {
          "internalType": "address",
          "name": "patId",
          "type": "address"
        }
      ],
      "name": "getDoctor",
      "outputs": [
        {
          "internalType": "address",
          "name": "",
          "type": "address"
        },
        {
          "internalType": "string",
          "name": "",
          "type": "string"
        },
        {
          "internalType": "string",
          "name": "",
          "type": "string"
        },
        {
          "internalType": "string",
          "name": "",
          "type": "string"
        },
        {
          "internalType": "string",
          "name": "",
          "type": "string"
        },
        {
          "internalType": "string",
          "name": "",
          "type": "string"
        },
        {
          "internalType": "string",
          "name": "",
          "type": "string"
        },
        {
          "internalType": "uint256",
          "name": "",
          "type": "uint256"
        }
      ],
      "stateMutability": "view",
      "type": "function",
      "constant": true
    },
    {
      "inputs": [],
      "name": "totalDoctorLength",
      "outputs": [
        {
          "internalType": "uint256",
          "name": "",
          "type": "uint256"
        }
      ],
      "stateMutability": "view",
      "type": "function",
      "constant": true
    },
    {
      "inputs": [
        {
          "internalType": "address",
          "name": "docId",
          "type": "address"
        }
      ],
      "name": "isDoctorValid",
      "outputs": [
        {
          "internalType": "bool",
          "name": "",
          "type": "bool"
        }
      ],
      "stateMutability": "view",
      "type": "function",
      "constant": true
    }
  ],
  "bytecode": "0x608060405233600260006101000a81548173ffffffffffffffffffffffffffffffffffffffff021916908373ffffffffffffffffffffffffffffffffffffffff16021790555034801561005157600080fd5b50611776806100616000396000f3fe608060405234801561001057600080fd5b506004361061007d5760003560e01c8063b2ea14661161005b578063b2ea146614610107578063b6ad101514610137578063baf27c261461016e578063fa6bc7c41461019e5761007d565b80632f04e064146100825780638da5cb5b146100b9578063a1ef11b6146100d7575b600080fd5b61009c600480360381019061009791906111d6565b6101bc565b6040516100b09897969594939291906112c4565b60405180910390f35b6100c1610626565b6040516100ce919061136c565b60405180910390f35b6100f160048036038101906100ec91906113b3565b61064c565b6040516100fe919061136c565b60405180910390f35b610121600480360381019061011c91906111d6565b610694565b60405161012e91906113fb565b60405180910390f35b610151600480360381019061014c91906111d6565b610b13565b6040516101659897969594939291906112c4565b60405180910390f35b6101886004803603810190610183919061154b565b610eab565b604051610195919061136c565b60405180910390f35b6101a66110b4565b6040516101b39190611695565b60405180910390f35b60006060806060806060806000806000808b73ffffffffffffffffffffffffffffffffffffffff1673ffffffffffffffffffffffffffffffffffffffff168152602001908152602001600020604051806101000160405290816000820160009054906101000a900473ffffffffffffffffffffffffffffffffffffffff1673ffffffffffffffffffffffffffffffffffffffff1673ffffffffffffffffffffffffffffffffffffffff16815260200160018201805461027a906116df565b80601f01602080910402602001604051908101604052809291908181526020018280546102a6906116df565b80156102f35780601f106102c8576101008083540402835291602001916102f3565b820191906000526020600020905b8154815290600101906020018083116102d657829003601f168201915b5050505050815260200160028201805461030c906116df565b80601f0160208091040260200160405190810160405280929190818152602001828054610338906116df565b80156103855780601f1061035a57610100808354040283529160200191610385565b820191906000526020600020905b81548152906001019060200180831161036857829003601f168201915b5050505050815260200160038201805461039e906116df565b80601f01602080910402602001604051908101604052809291908181526020018280546103ca906116df565b80156104175780601f106103ec57610100808354040283529160200191610417565b820191906000526020600020905b8154815290600101906020018083116103fa57829003601f168201915b50505050508152602001600482018054610430906116df565b80601f016020809104026020016040519081016040528092919081815260200182805461045c906116df565b80156104a95780601f1061047e576101008083540402835291602001916104a9565b820191906000526020600020905b81548152906001019060200180831161048c57829003601f168201915b505050505081526020016005820180546104c2906116df565b80601f01602080910402602001604051908101604052809291908181526020018280546104ee906116df565b801561053b5780601f106105105761010080835404028352916020019161053b565b820191906000526020600020905b81548152906001019060200180831161051e57829003601f168201915b50505050508152602001600682018054610554906116df565b80601f0160208091040260200160405190810160405280929190818152602001828054610580906116df565b80156105cd5780601f106105a2576101008083540402835291602001916105cd565b820191906000526020600020905b8154815290600101906020018083116105b057829003601f168201915b505050505081526020016007820154815250509050806000015181602001518260400151836060015184608001518560a001518660c001518760e001519850985098509850985098509850985050919395975091939597565b600260009054906101000a900473ffffffffffffffffffffffffffffffffffffffff1681565b60006001828154811061066257610661611711565b5b9060005260206000200160009054906101000a900473ffffffffffffffffffffffffffffffffffffffff169050919050565b60008060018054905014156106ac5760009050610b0e565b60008060008473ffffffffffffffffffffffffffffffffffffffff1673ffffffffffffffffffffffffffffffffffffffff168152602001908152602001600020604051806101000160405290816000820160009054906101000a900473ffffffffffffffffffffffffffffffffffffffff1673ffffffffffffffffffffffffffffffffffffffff1673ffffffffffffffffffffffffffffffffffffffff16815260200160018201805461075e906116df565b80601f016020809104026020016040519081016040528092919081815260200182805461078a906116df565b80156107d75780601f106107ac576101008083540402835291602001916107d7565b820191906000526020600020905b8154815290600101906020018083116107ba57829003601f168201915b505050505081526020016002820180546107f0906116df565b80601f016020809104026020016040519081016040528092919081815260200182805461081c906116df565b80156108695780601f1061083e57610100808354040283529160200191610869565b820191906000526020600020905b81548152906001019060200180831161084c57829003601f168201915b50505050508152602001600382018054610882906116df565b80601f01602080910402602001604051908101604052809291908181526020018280546108ae906116df565b80156108fb5780601f106108d0576101008083540402835291602001916108fb565b820191906000526020600020905b8154815290600101906020018083116108de57829003601f168201915b50505050508152602001600482018054610914906116df565b80601f0160208091040260200160405190810160405280929190818152602001828054610940906116df565b801561098d5780601f106109625761010080835404028352916020019161098d565b820191906000526020600020905b81548152906001019060200180831161097057829003601f168201915b505050505081526020016005820180546109a6906116df565b80601f01602080910402602001604051908101604052809291908181526020018280546109d2906116df565b8015610a1f5780601f106109f457610100808354040283529160200191610a1f565b820191906000526020600020905b815481529060010190602001808311610a0257829003601f168201915b50505050508152602001600682018054610a38906116df565b80601f0160208091040260200160405190810160405280929190818152602001828054610a64906116df565b8015610ab15780601f10610a8657610100808354040283529160200191610ab1565b820191906000526020600020905b815481529060010190602001808311610a9457829003601f168201915b5050505050815260200160078201548152505090508273ffffffffffffffffffffffffffffffffffffffff16816000015173ffffffffffffffffffffffffffffffffffffffff161415610b08576001915050610b0e565b60009150505b919050565b60006020528060005260406000206000915090508060000160009054906101000a900473ffffffffffffffffffffffffffffffffffffffff1690806001018054610b5c906116df565b80601f0160208091040260200160405190810160405280929190818152602001828054610b88906116df565b8015610bd55780601f10610baa57610100808354040283529160200191610bd5565b820191906000526020600020905b815481529060010190602001808311610bb857829003601f168201915b505050505090806002018054610bea906116df565b80601f0160208091040260200160405190810160405280929190818152602001828054610c16906116df565b8015610c635780601f10610c3857610100808354040283529160200191610c63565b820191906000526020600020905b815481529060010190602001808311610c4657829003601f168201915b505050505090806003018054610c78906116df565b80601f0160208091040260200160405190810160405280929190818152602001828054610ca4906116df565b8015610cf15780601f10610cc657610100808354040283529160200191610cf1565b820191906000526020600020905b815481529060010190602001808311610cd457829003601f168201915b505050505090806004018054610d06906116df565b80601f0160208091040260200160405190810160405280929190818152602001828054610d32906116df565b8015610d7f5780601f10610d5457610100808354040283529160200191610d7f565b820191906000526020600020905b815481529060010190602001808311610d6257829003601f168201915b505050505090806005018054610d94906116df565b80601f0160208091040260200160405190810160405280929190818152602001828054610dc0906116df565b8015610e0d5780601f10610de257610100808354040283529160200191610e0d565b820191906000526020600020905b815481529060010190602001808311610df057829003601f168201915b505050505090806006018054610e22906116df565b80601f0160208091040260200160405190810160405280929190818152602001828054610e4e906116df565b8015610e9b5780601f10610e7057610100808354040283529160200191610e9b565b820191906000526020600020905b815481529060010190602001808311610e7e57829003601f168201915b5050505050908060070154905088565b6000806040518061010001604052808a73ffffffffffffffffffffffffffffffffffffffff16815260200189815260200188815260200187815260200186815260200184815260200185815260200160018152509050806000808b73ffffffffffffffffffffffffffffffffffffffff1673ffffffffffffffffffffffffffffffffffffffff16815260200190815260200160002060008201518160000160006101000a81548173ffffffffffffffffffffffffffffffffffffffff021916908373ffffffffffffffffffffffffffffffffffffffff1602179055506020820151816001019080519060200190610fa39291906110c1565b506040820151816002019080519060200190610fc09291906110c1565b506060820151816003019080519060200190610fdd9291906110c1565b506080820151816004019080519060200190610ffa9291906110c1565b5060a08201518160050190805190602001906110179291906110c1565b5060c08201518160060190805190602001906110349291906110c1565b5060e082015181600701559050506001899080600181540180825580915050600190039060005260206000200160009091909190916101000a81548173ffffffffffffffffffffffffffffffffffffffff021916908373ffffffffffffffffffffffffffffffffffffffff16021790555088915050979650505050505050565b6000600180549050905090565b8280546110cd906116df565b90600052602060002090601f0160209004810192826110ef5760008555611136565b82601f1061110857805160ff1916838001178555611136565b82800160010185558215611136579182015b8281111561113557825182559160200191906001019061111a565b5b5090506111439190611147565b5090565b5b80821115611160576000816000905550600101611148565b5090565b6000604051905090565b600080fd5b600080fd5b600073ffffffffffffffffffffffffffffffffffffffff82169050919050565b60006111a382611178565b9050919050565b6111b381611198565b81146111be57600080fd5b50565b6000813590506111d0816111aa565b92915050565b6000602082840312156111ec576111eb61116e565b5b60006111fa848285016111c1565b91505092915050565b61120c81611198565b82525050565b600081519050919050565b600082825260208201905092915050565b60005b8381101561124c578082015181840152602081019050611231565b8381111561125b576000848401525b50505050565b6000601f19601f8301169050919050565b600061127d82611212565b611287818561121d565b935061129781856020860161122e565b6112a081611261565b840191505092915050565b6000819050919050565b6112be816112ab565b82525050565b6000610100820190506112da600083018b611203565b81810360208301526112ec818a611272565b905081810360408301526113008189611272565b905081810360608301526113148188611272565b905081810360808301526113288187611272565b905081810360a083015261133c8186611272565b905081810360c08301526113508185611272565b905061135f60e08301846112b5565b9998505050505050505050565b60006020820190506113816000830184611203565b92915050565b611390816112ab565b811461139b57600080fd5b50565b6000813590506113ad81611387565b92915050565b6000602082840312156113c9576113c861116e565b5b60006113d78482850161139e565b91505092915050565b60008115159050919050565b6113f5816113e0565b82525050565b600060208201905061141060008301846113ec565b92915050565b600080fd5b600080fd5b7f4e487b7100000000000000000000000000000000000000000000000000000000600052604160045260246000fd5b61145882611261565b810181811067ffffffffffffffff8211171561147757611476611420565b5b80604052505050565b600061148a611164565b9050611496828261144f565b919050565b600067ffffffffffffffff8211156114b6576114b5611420565b5b6114bf82611261565b9050602081019050919050565b82818337600083830152505050565b60006114ee6114e98461149b565b611480565b90508281526020810184848401111561150a5761150961141b565b5b6115158482856114cc565b509392505050565b600082601f83011261153257611531611416565b5b81356115428482602086016114db565b91505092915050565b600080600080600080600060e0888a03121561156a5761156961116e565b5b60006115788a828b016111c1565b975050602088013567ffffffffffffffff81111561159957611598611173565b5b6115a58a828b0161151d565b965050604088013567ffffffffffffffff8111156115c6576115c5611173565b5b6115d28a828b0161151d565b955050606088013567ffffffffffffffff8111156115f3576115f2611173565b5b6115ff8a828b0161151d565b945050608088013567ffffffffffffffff8111156116205761161f611173565b5b61162c8a828b0161151d565b93505060a088013567ffffffffffffffff81111561164d5761164c611173565b5b6116598a828b0161151d565b92505060c088013567ffffffffffffffff81111561167a57611679611173565b5b6116868a828b0161151d565b91505092959891949750929550565b60006020820190506116aa60008301846112b5565b92915050565b7f4e487b7100000000000000000000000000000000000000000000000000000000600052602260045260246000fd5b600060028204905060018216806116f757607f821691505b6020821081141561170b5761170a6116b0565b5b50919050565b7f4e487b7100000000000000000000000000000000000000000000000000000000600052603260045260246000fdfea2646970667358221220bdfb1931dca7f3d9a4f7293417014cb2aa14e409dd06b605eb33f276599c7ffe64736f6c634300080a0033",
  "immutableReferences": {},
  "source": "// SPDX-License-Identifier: MIT\r\npragma solidity >=0.4.22 <0.9.0;\r\n\r\nimport \"./Patient.sol\";\r\n\r\ncontract Doctor {\r\n    mapping(address=>DoctorData) public allDoctors;\r\n    address[] allDoctorAddress;\r\n    address public owner = msg.sender;\r\n\r\n\r\n  Patient patient;\r\n\r\n  function getDoctorId(uint i) public view returns (address) {\r\n    return allDoctorAddress[i];\r\n  }\r\n  \r\n    function addDoctor(address dId,string memory name,string memory age,string memory gender,string memory bloodGrp,string memory hosp,string memory addr) public returns(address){\r\n      DoctorData memory Ddata=DoctorData(dId,name,age,gender,bloodGrp,addr,hosp,1);\r\n      allDoctors[dId]=Ddata;\r\n      allDoctorAddress.push(dId);\r\n      return dId;\r\n  }\r\n\r\n    function getDoctor(address  patId) public view returns ( address ,string memory  ,string memory ,string memory ,string memory ,string memory ,string memory ,uint) {\r\n     DoctorData memory Ddata=allDoctors[patId];\r\n     return ( Ddata._id,Ddata.doctorName,Ddata.age,Ddata.gender,Ddata.bloodGroup,Ddata.Address,Ddata.hospital,Ddata.role);\r\n }\r\n\r\n  function totalDoctorLength()public view returns (uint ){\r\n     return  allDoctorAddress.length;\r\n }\r\n\r\n function isDoctorValid(address docId) public view returns (bool){\r\n   if(allDoctorAddress.length==0) return false;\r\n   DoctorData memory data=allDoctors[docId];\r\n     if(data._id==docId)return true;\r\n     else return false;\r\n }\r\n \r\n \r\n}\r\n\r\n\r\nstruct DoctorData {\r\n    address _id;\r\n    string doctorName;\r\n    string age;\r\n    string gender;\r\n    string bloodGroup;\r\n    string Address;\r\n    string hospital;\r\n    uint role;\r\n}\r\n\r\n/* \r\n\r\n1001:[\r\n    {\r\n        uint _id;\r\n    string patientName;\r\n    string age;\r\n    string gender;\r\n    string bloodGroup;\r\n    string Address;\r\n    string hospital;\r\n    string device_id;\r\n        }\r\n]\r\n\r\n*/",
  "sourcePath": "D:\\Health BlockChain\\contracts\\contracts\\Doctor.sol",
  "compiler": {
    "name": "solc",
    "version": "0.8.10+commit.fc410830.Emscripten.clang"
  },
  "schemaVersion": "3.4.7",
  "updatedAt": "2022-06-05T09:41:01.804Z",
  "networkType": "ethereum",
  "devdoc": {
    "kind": "dev",
    "methods": {},
    "version": 1
  },
  "userdoc": {
    "kind": "user",
    "methods": {},
    "version": 1
  }
}