{
  "contractName": "Monitor",
  "abi": [
    {
      "inputs": [],
      "name": "owner",
      "outputs": [
        {
          "internalType": "address",
          "name": "",
          "type": "address"
        }
      ],
      "stateMutability": "view",
      "type": "function",
      "constant": true
    },
    {
      "inputs": [],
      "name": "patientId",
      "outputs": [
        {
          "internalType": "uint256",
          "name": "",
          "type": "uint256"
        }
      ],
      "stateMutability": "view",
      "type": "function",
      "constant": true
    },
    {
      "inputs": [
        {
          "internalType": "address",
          "name": "patId",
          "type": "address"
        },
        {
          "internalType": "string",
          "name": "id",
          "type": "string"
        },
        {
          "internalType": "string",
          "name": "pulse",
          "type": "string"
        },
        {
          "internalType": "string",
          "name": "spo2",
          "type": "string"
        },
        {
          "internalType": "string",
          "name": "temp",
          "type": "string"
        }
      ],
      "name": "addPatientData",
      "outputs": [
        {
          "internalType": "bool",
          "name": "",
          "type": "bool"
        }
      ],
      "stateMutability": "nonpayable",
      "type": "function"
    },
    {
      "inputs": [
        {
          "internalType": "address",
          "name": "patId",
          "type": "address"
        }
      ],
      "name": "getPatientData",
      "outputs": [
        {
          "internalType": "string",
          "name": "",
          "type": "string"
        },
        {
          "internalType": "string",
          "name": "",
          "type": "string"
        },
        {
          "internalType": "string",
          "name": "",
          "type": "string"
        },
        {
          "internalType": "string",
          "name": "",
          "type": "string"
        }
      ],
      "stateMutability": "view",
      "type": "function",
      "constant": true
    }
  ],
  "bytecode": "0x608060405233600260006101000a81548173ffffffffffffffffffffffffffffffffffffffff021916908373ffffffffffffffffffffffffffffffffffffffff16021790555034801561005157600080fd5b50610cb9806100616000396000f3fe608060405234801561001057600080fd5b506004361061004c5760003560e01c806348e81852146100515780638da5cb5b14610084578063a9454537146100a2578063e07f4444146100d2575b600080fd5b61006b600480360381019061006691906107bf565b6100f0565b60405161007b9493929190610885565b60405180910390f35b61008c6104c0565b60405161009991906108f5565b60405180910390f35b6100bc60048036038101906100b79190610a45565b6104e6565b6040516100c99190610b4b565b60405180910390f35b6100da6106a4565b6040516100e79190610b7f565b60405180910390f35b60608060608060008060008773ffffffffffffffffffffffffffffffffffffffff1673ffffffffffffffffffffffffffffffffffffffff16815260200190815260200160002060008154811061014957610148610b9a565b5b906000526020600020906004020160405180608001604052908160008201805461017290610bf8565b80601f016020809104026020016040519081016040528092919081815260200182805461019e90610bf8565b80156101eb5780601f106101c0576101008083540402835291602001916101eb565b820191906000526020600020905b8154815290600101906020018083116101ce57829003601f168201915b5050505050815260200160018201805461020490610bf8565b80601f016020809104026020016040519081016040528092919081815260200182805461023090610bf8565b801561027d5780601f106102525761010080835404028352916020019161027d565b820191906000526020600020905b81548152906001019060200180831161026057829003601f168201915b5050505050815260200160028201805461029690610bf8565b80601f01602080910402602001604051908101604052809291908181526020018280546102c290610bf8565b801561030f5780601f106102e45761010080835404028352916020019161030f565b820191906000526020600020905b8154815290600101906020018083116102f257829003601f168201915b5050505050815260200160038201805461032890610bf8565b80601f016020809104026020016040519081016040528092919081815260200182805461035490610bf8565b80156103a15780601f10610376576101008083540402835291602001916103a1565b820191906000526020600020905b81548152906001019060200180831161038457829003601f168201915b5050505050815250509050600460009054906101000a900473ffffffffffffffffffffffffffffffffffffffff1673ffffffffffffffffffffffffffffffffffffffff1663d201256d876040518263ffffffff1660e01b815260040161040791906108f5565b602060405180830381865afa158015610424573d6000803e3d6000fd5b505050506040513d601f19601f820116820180604052508101906104489190610c56565b1561046f5780600001518160200151826040015183606001519450945094509450506104b9565b604051806020016040528060008152506040518060200160405280600081525060405180602001604052806000815250604051806020016040528060008152509450945094509450505b9193509193565b600260009054906101000a900473ffffffffffffffffffffffffffffffffffffffff1681565b6000806040518060800160405280878152602001868152602001858152602001848152509050600460009054906101000a900473ffffffffffffffffffffffffffffffffffffffff1673ffffffffffffffffffffffffffffffffffffffff1663d201256d886040518263ffffffff1660e01b815260040161056791906108f5565b602060405180830381865afa158015610584573d6000803e3d6000fd5b505050506040513d601f19601f820116820180604052508101906105a89190610c56565b15610695576000808873ffffffffffffffffffffffffffffffffffffffff1673ffffffffffffffffffffffffffffffffffffffff16815260200190815260200160002081908060018154018082558091505060019003906000526020600020906004020160009091909190915060008201518160000190805190602001906106319291906106aa565b50602082015181600101908051906020019061064e9291906106aa565b50604082015181600201908051906020019061066b9291906106aa565b5060608201518160030190805190602001906106889291906106aa565b505050600191505061069b565b60009150505b95945050505050565b60035481565b8280546106b690610bf8565b90600052602060002090601f0160209004810192826106d8576000855561071f565b82601f106106f157805160ff191683800117855561071f565b8280016001018555821561071f579182015b8281111561071e578251825591602001919060010190610703565b5b50905061072c9190610730565b5090565b5b80821115610749576000816000905550600101610731565b5090565b6000604051905090565b600080fd5b600080fd5b600073ffffffffffffffffffffffffffffffffffffffff82169050919050565b600061078c82610761565b9050919050565b61079c81610781565b81146107a757600080fd5b50565b6000813590506107b981610793565b92915050565b6000602082840312156107d5576107d4610757565b5b60006107e3848285016107aa565b91505092915050565b600081519050919050565b600082825260208201905092915050565b60005b8381101561082657808201518184015260208101905061080b565b83811115610835576000848401525b50505050565b6000601f19601f8301169050919050565b6000610857826107ec565b61086181856107f7565b9350610871818560208601610808565b61087a8161083b565b840191505092915050565b6000608082019050818103600083015261089f818761084c565b905081810360208301526108b3818661084c565b905081810360408301526108c7818561084c565b905081810360608301526108db818461084c565b905095945050505050565b6108ef81610781565b82525050565b600060208201905061090a60008301846108e6565b92915050565b600080fd5b600080fd5b7f4e487b7100000000000000000000000000000000000000000000000000000000600052604160045260246000fd5b6109528261083b565b810181811067ffffffffffffffff821117156109715761097061091a565b5b80604052505050565b600061098461074d565b90506109908282610949565b919050565b600067ffffffffffffffff8211156109b0576109af61091a565b5b6109b98261083b565b9050602081019050919050565b82818337600083830152505050565b60006109e86109e384610995565b61097a565b905082815260208101848484011115610a0457610a03610915565b5b610a0f8482856109c6565b509392505050565b600082601f830112610a2c57610a2b610910565b5b8135610a3c8482602086016109d5565b91505092915050565b600080600080600060a08688031215610a6157610a60610757565b5b6000610a6f888289016107aa565b955050602086013567ffffffffffffffff811115610a9057610a8f61075c565b5b610a9c88828901610a17565b945050604086013567ffffffffffffffff811115610abd57610abc61075c565b5b610ac988828901610a17565b935050606086013567ffffffffffffffff811115610aea57610ae961075c565b5b610af688828901610a17565b925050608086013567ffffffffffffffff811115610b1757610b1661075c565b5b610b2388828901610a17565b9150509295509295909350565b60008115159050919050565b610b4581610b30565b82525050565b6000602082019050610b606000830184610b3c565b92915050565b6000819050919050565b610b7981610b66565b82525050565b6000602082019050610b946000830184610b70565b92915050565b7f4e487b7100000000000000000000000000000000000000000000000000000000600052603260045260246000fd5b7f4e487b7100000000000000000000000000000000000000000000000000000000600052602260045260246000fd5b60006002820490506001821680610c1057607f821691505b60208210811415610c2457610c23610bc9565b5b50919050565b610c3381610b30565b8114610c3e57600080fd5b50565b600081519050610c5081610c2a565b92915050565b600060208284031215610c6c57610c6b610757565b5b6000610c7a84828501610c41565b9150509291505056fea264697066735822122040dfadeee6640274e8c2c35828fd7a2549014f5823c911fd6b9d0e282227086a64736f6c634300080a0033",
  "immutableReferences": {},
  "source": "// SPDX-License-Identifier: MIT\r\npragma solidity >=0.4.22 <0.9.0;\r\n\r\nimport \"./Patient.sol\";\r\nimport \"./Doctor.sol\";\r\n\r\ncontract Monitor {\r\n    mapping(address=>PatientMonitor[]) allPatientData;\r\n    mapping (string=>PatientData) allPatients;\r\n    address public owner = msg.sender;\r\n      uint public patientId;\r\n\r\n  \r\n\r\n  Patient patient;\r\n  Doctor doctor;\r\n  \r\n    function addPatientData(address patId,string memory id,string memory pulse,string memory spo2,string memory temp) public returns(bool) {\r\n        PatientMonitor memory PatientMonitorData= PatientMonitor(id,pulse,spo2,temp);\r\n        if(patient.isValidPatient(patId)) {\r\n            allPatientData[patId].push(PatientMonitorData);\r\n            return true;\r\n        }\r\n        return false;\r\n    }\r\n\r\n    function getPatientData(address patId) public view returns(string memory,string memory,string memory,string memory){\r\n          PatientMonitor memory PatientMonitorData=allPatientData[patId][0];\r\n           if(patient.isValidPatient(patId)){\r\n          return (PatientMonitorData._id,PatientMonitorData.pulse,PatientMonitorData.spo2,PatientMonitorData.temp);\r\n           }\r\n           else {\r\n               return (\"\",\"\",\"\",\"\");\r\n           }\r\n    }\r\n \r\n}\r\n\r\n\r\nstruct PatientMonitor {\r\n    string _id;\r\n    string pulse;\r\n    string spo2;\r\n    string temp;\r\n}\r\n\r\n",
  "sourcePath": "D:\\Health BlockChain\\backend\\contracts\\Monitor.sol",
  "compiler": {
    "name": "solc",
    "version": "0.8.10+commit.fc410830.Emscripten.clang"
  },
  "schemaVersion": "3.4.7",
  "updatedAt": "2022-04-17T17:58:52.587Z",
  "networkType": "ethereum",
  "devdoc": {
    "kind": "dev",
    "methods": {},
    "version": 1
  },
  "userdoc": {
    "kind": "user",
    "methods": {},
    "version": 1
  }
}