{
  "contractName": "Monitor",
  "abi": [
    {
      "inputs": [],
      "name": "owner",
      "outputs": [
        {
          "internalType": "address",
          "name": "",
          "type": "address"
        }
      ],
      "stateMutability": "view",
      "type": "function",
      "constant": true
    },
    {
      "inputs": [],
      "name": "patientId",
      "outputs": [
        {
          "internalType": "uint256",
          "name": "",
          "type": "uint256"
        }
      ],
      "stateMutability": "view",
      "type": "function",
      "constant": true
    },
    {
      "inputs": [
        {
          "internalType": "address",
          "name": "patId",
          "type": "address"
        },
        {
          "internalType": "string",
          "name": "pulse",
          "type": "string"
        },
        {
          "internalType": "string",
          "name": "spo2",
          "type": "string"
        },
        {
          "internalType": "string",
          "name": "temp",
          "type": "string"
        }
      ],
      "name": "addPatientData",
      "outputs": [
        {
          "internalType": "bool",
          "name": "",
          "type": "bool"
        }
      ],
      "stateMutability": "nonpayable",
      "type": "function"
    },
    {
      "inputs": [
        {
          "internalType": "address",
          "name": "pid",
          "type": "address"
        }
      ],
      "name": "getAllPatientDataLength",
      "outputs": [
        {
          "internalType": "uint256",
          "name": "",
          "type": "uint256"
        }
      ],
      "stateMutability": "view",
      "type": "function",
      "constant": true
    },
    {
      "inputs": [
        {
          "internalType": "address",
          "name": "patId",
          "type": "address"
        },
        {
          "internalType": "uint256",
          "name": "index",
          "type": "uint256"
        }
      ],
      "name": "getPatientData",
      "outputs": [
        {
          "internalType": "address",
          "name": "",
          "type": "address"
        },
        {
          "internalType": "string",
          "name": "",
          "type": "string"
        },
        {
          "internalType": "string",
          "name": "",
          "type": "string"
        },
        {
          "internalType": "string",
          "name": "",
          "type": "string"
        }
      ],
      "stateMutability": "view",
      "type": "function",
      "constant": true
    }
  ],
  "bytecode": "0x608060405233600260006101000a81548173ffffffffffffffffffffffffffffffffffffffff021916908373ffffffffffffffffffffffffffffffffffffffff16021790555034801561005157600080fd5b50610b84806100616000396000f3fe608060405234801561001057600080fd5b50600436106100575760003560e01c806344fcf8771461005c5780635724b0ed1461008c5780638da5cb5b146100bc578063add4e81d146100da578063e07f44441461010d575b600080fd5b610076600480360381019061007191906106ae565b61012b565b60405161008391906106f4565b60405180910390f35b6100a660048036038101906100a19190610855565b610176565b6040516100b3919061092b565b60405180910390f35b6100c46102c7565b6040516100d19190610955565b60405180910390f35b6100f460048036038101906100ef919061099c565b6102ed565b6040516101049493929190610a64565b60405180910390f35b610115610593565b60405161012291906106f4565b60405180910390f35b60008060008373ffffffffffffffffffffffffffffffffffffffff1673ffffffffffffffffffffffffffffffffffffffff168152602001908152602001600020805490509050919050565b60008060405180608001604052808773ffffffffffffffffffffffffffffffffffffffff1681526020018681526020018581526020018481525090506000808773ffffffffffffffffffffffffffffffffffffffff1673ffffffffffffffffffffffffffffffffffffffff16815260200190815260200160002081908060018154018082558091505060019003906000526020600020906004020160009091909190915060008201518160000160006101000a81548173ffffffffffffffffffffffffffffffffffffffff021916908373ffffffffffffffffffffffffffffffffffffffff160217905550602082015181600101908051906020019061027d929190610599565b50604082015181600201908051906020019061029a929190610599565b5060608201518160030190805190602001906102b7929190610599565b5050506001915050949350505050565b600260009054906101000a900473ffffffffffffffffffffffffffffffffffffffff1681565b6000606080606060008060008873ffffffffffffffffffffffffffffffffffffffff1673ffffffffffffffffffffffffffffffffffffffff168152602001908152602001600020868154811061034657610345610abe565b5b90600052602060002090600402016040518060800160405290816000820160009054906101000a900473ffffffffffffffffffffffffffffffffffffffff1673ffffffffffffffffffffffffffffffffffffffff1673ffffffffffffffffffffffffffffffffffffffff1681526020016001820180546103c590610b1c565b80601f01602080910402602001604051908101604052809291908181526020018280546103f190610b1c565b801561043e5780601f106104135761010080835404028352916020019161043e565b820191906000526020600020905b81548152906001019060200180831161042157829003601f168201915b5050505050815260200160028201805461045790610b1c565b80601f016020809104026020016040519081016040528092919081815260200182805461048390610b1c565b80156104d05780601f106104a5576101008083540402835291602001916104d0565b820191906000526020600020905b8154815290600101906020018083116104b357829003601f168201915b505050505081526020016003820180546104e990610b1c565b80601f016020809104026020016040519081016040528092919081815260200182805461051590610b1c565b80156105625780601f1061053757610100808354040283529160200191610562565b820191906000526020600020905b81548152906001019060200180831161054557829003601f168201915b5050505050815250509050806000015181602001518260400151836060015194509450945094505092959194509250565b60035481565b8280546105a590610b1c565b90600052602060002090601f0160209004810192826105c7576000855561060e565b82601f106105e057805160ff191683800117855561060e565b8280016001018555821561060e579182015b8281111561060d5782518255916020019190600101906105f2565b5b50905061061b919061061f565b5090565b5b80821115610638576000816000905550600101610620565b5090565b6000604051905090565b600080fd5b600080fd5b600073ffffffffffffffffffffffffffffffffffffffff82169050919050565b600061067b82610650565b9050919050565b61068b81610670565b811461069657600080fd5b50565b6000813590506106a881610682565b92915050565b6000602082840312156106c4576106c3610646565b5b60006106d284828501610699565b91505092915050565b6000819050919050565b6106ee816106db565b82525050565b600060208201905061070960008301846106e5565b92915050565b600080fd5b600080fd5b6000601f19601f8301169050919050565b7f4e487b7100000000000000000000000000000000000000000000000000000000600052604160045260246000fd5b61076282610719565b810181811067ffffffffffffffff821117156107815761078061072a565b5b80604052505050565b600061079461063c565b90506107a08282610759565b919050565b600067ffffffffffffffff8211156107c0576107bf61072a565b5b6107c982610719565b9050602081019050919050565b82818337600083830152505050565b60006107f86107f3846107a5565b61078a565b90508281526020810184848401111561081457610813610714565b5b61081f8482856107d6565b509392505050565b600082601f83011261083c5761083b61070f565b5b813561084c8482602086016107e5565b91505092915050565b6000806000806080858703121561086f5761086e610646565b5b600061087d87828801610699565b945050602085013567ffffffffffffffff81111561089e5761089d61064b565b5b6108aa87828801610827565b935050604085013567ffffffffffffffff8111156108cb576108ca61064b565b5b6108d787828801610827565b925050606085013567ffffffffffffffff8111156108f8576108f761064b565b5b61090487828801610827565b91505092959194509250565b60008115159050919050565b61092581610910565b82525050565b6000602082019050610940600083018461091c565b92915050565b61094f81610670565b82525050565b600060208201905061096a6000830184610946565b92915050565b610979816106db565b811461098457600080fd5b50565b60008135905061099681610970565b92915050565b600080604083850312156109b3576109b2610646565b5b60006109c185828601610699565b92505060206109d285828601610987565b9150509250929050565b600081519050919050565b600082825260208201905092915050565b60005b83811015610a165780820151818401526020810190506109fb565b83811115610a25576000848401525b50505050565b6000610a36826109dc565b610a4081856109e7565b9350610a508185602086016109f8565b610a5981610719565b840191505092915050565b6000608082019050610a796000830187610946565b8181036020830152610a8b8186610a2b565b90508181036040830152610a9f8185610a2b565b90508181036060830152610ab38184610a2b565b905095945050505050565b7f4e487b7100000000000000000000000000000000000000000000000000000000600052603260045260246000fd5b7f4e487b7100000000000000000000000000000000000000000000000000000000600052602260045260246000fd5b60006002820490506001821680610b3457607f821691505b60208210811415610b4857610b47610aed565b5b5091905056fea26469706673582212201eac23ca937d2a8a7e63504f95bcf6846fe9ea1b9f9d052e8c969b658b811bdd64736f6c634300080a0033",
  "immutableReferences": {},
  "source": "// SPDX-License-Identifier: MIT\r\npragma solidity >=0.4.22 <0.9.0;\r\n\r\nimport \"./Patient.sol\";\r\nimport \"./Doctor.sol\";\r\n\r\ncontract Monitor {\r\n    mapping(address=>PatientMonitor[]) allPatientData;\r\n    mapping (string=>PatientData) allPatients;\r\n    address public owner = msg.sender;\r\n      uint public patientId;\r\n\r\n  \r\n\r\n  Patient patient;\r\n  Doctor doctor;\r\n  \r\n    function addPatientData(address patId,string memory pulse,string memory spo2,string memory temp) public returns(bool) {\r\n        PatientMonitor memory PatientMonitorData= PatientMonitor(patId,pulse,spo2,temp);\r\n            allPatientData[patId].push(PatientMonitorData);\r\n            return true;\r\n        \r\n    }\r\n\r\n    function getAllPatientDataLength(address pid) public view returns(uint){\r\n        return allPatientData[pid].length;\r\n    }\r\n\r\n    function getPatientData(address patId,uint index) public view returns(address,string memory,string memory,string memory){\r\n          PatientMonitor memory PatientMonitorData=allPatientData[patId][index];\r\n          return (PatientMonitorData._id,PatientMonitorData.pulse,PatientMonitorData.spo2,PatientMonitorData.temp);\r\n          \r\n    }\r\n \r\n}\r\n\r\n\r\nstruct PatientMonitor {\r\n    address _id;\r\n    string pulse;\r\n    string spo2;\r\n    string temp;\r\n}\r\n\r\n",
  "sourcePath": "D:\\Health BlockChain\\contracts\\contracts\\Monitor.sol",
  "compiler": {
    "name": "solc",
    "version": "0.8.10+commit.fc410830.Emscripten.clang"
  },
  "schemaVersion": "3.4.7",
  "updatedAt": "2022-06-05T09:41:01.822Z",
  "networkType": "ethereum",
  "devdoc": {
    "kind": "dev",
    "methods": {},
    "version": 1
  },
  "userdoc": {
    "kind": "user",
    "methods": {},
    "version": 1
  }
}