{
  "contractName": "Patient",
  "abi": [
    {
      "inputs": [
        {
          "internalType": "address",
          "name": "",
          "type": "address"
        }
      ],
      "name": "allPatients",
      "outputs": [
        {
          "internalType": "address",
          "name": "_id",
          "type": "address"
        },
        {
          "internalType": "string",
          "name": "patientName",
          "type": "string"
        },
        {
          "internalType": "string",
          "name": "age",
          "type": "string"
        },
        {
          "internalType": "string",
          "name": "gender",
          "type": "string"
        },
        {
          "internalType": "string",
          "name": "bloodGroup",
          "type": "string"
        },
        {
          "internalType": "string",
          "name": "Address",
          "type": "string"
        },
        {
          "internalType": "string",
          "name": "device_id",
          "type": "string"
        },
        {
          "internalType": "string",
          "name": "hospital",
          "type": "string"
        },
        {
          "internalType": "address",
          "name": "doctorAssigned",
          "type": "address"
        },
        {
          "internalType": "uint256",
          "name": "role",
          "type": "uint256"
        }
      ],
      "stateMutability": "view",
      "type": "function",
      "constant": true
    },
    {
      "inputs": [],
      "name": "owner",
      "outputs": [
        {
          "internalType": "address",
          "name": "",
          "type": "address"
        }
      ],
      "stateMutability": "view",
      "type": "function",
      "constant": true
    },
    {
      "inputs": [],
      "name": "patientId",
      "outputs": [
        {
          "internalType": "uint256",
          "name": "",
          "type": "uint256"
        }
      ],
      "stateMutability": "view",
      "type": "function",
      "constant": true
    },
    {
      "inputs": [
        {
          "internalType": "uint256",
          "name": "i",
          "type": "uint256"
        }
      ],
      "name": "getPatientId",
      "outputs": [
        {
          "internalType": "address",
          "name": "",
          "type": "address"
        }
      ],
      "stateMutability": "view",
      "type": "function",
      "constant": true
    },
    {
      "inputs": [
        {
          "internalType": "address",
          "name": "pId",
          "type": "address"
        },
        {
          "internalType": "string",
          "name": "name",
          "type": "string"
        },
        {
          "internalType": "string",
          "name": "age",
          "type": "string"
        },
        {
          "internalType": "string",
          "name": "gender",
          "type": "string"
        },
        {
          "internalType": "string",
          "name": "bloodGrp",
          "type": "string"
        },
        {
          "internalType": "string",
          "name": "addr",
          "type": "string"
        },
        {
          "internalType": "string",
          "name": "device_id",
          "type": "string"
        },
        {
          "internalType": "string",
          "name": "hosp",
          "type": "string"
        },
        {
          "internalType": "address",
          "name": "doctor",
          "type": "address"
        }
      ],
      "name": "addPatient",
      "outputs": [
        {
          "internalType": "address",
          "name": "",
          "type": "address"
        }
      ],
      "stateMutability": "nonpayable",
      "type": "function"
    },
    {
      "inputs": [
        {
          "internalType": "address",
          "name": "patId",
          "type": "address"
        }
      ],
      "name": "getPatient",
      "outputs": [
        {
          "internalType": "address",
          "name": "",
          "type": "address"
        },
        {
          "internalType": "string",
          "name": "",
          "type": "string"
        },
        {
          "internalType": "string",
          "name": "",
          "type": "string"
        },
        {
          "internalType": "string",
          "name": "",
          "type": "string"
        },
        {
          "internalType": "string",
          "name": "",
          "type": "string"
        },
        {
          "internalType": "string",
          "name": "",
          "type": "string"
        },
        {
          "internalType": "string",
          "name": "",
          "type": "string"
        },
        {
          "internalType": "address",
          "name": "",
          "type": "address"
        },
        {
          "internalType": "uint256",
          "name": "",
          "type": "uint256"
        },
        {
          "internalType": "string",
          "name": "",
          "type": "string"
        }
      ],
      "stateMutability": "view",
      "type": "function",
      "constant": true
    },
    {
      "inputs": [],
      "name": "totalPatientsLength",
      "outputs": [
        {
          "internalType": "uint256",
          "name": "",
          "type": "uint256"
        }
      ],
      "stateMutability": "view",
      "type": "function",
      "constant": true
    },
    {
      "inputs": [
        {
          "internalType": "address",
          "name": "pid",
          "type": "address"
        },
        {
          "internalType": "address",
          "name": "docId",
          "type": "address"
        }
      ],
      "name": "editPatientData",
      "outputs": [
        {
          "internalType": "bool",
          "name": "",
          "type": "bool"
        }
      ],
      "stateMutability": "nonpayable",
      "type": "function"
    },
    {
      "inputs": [
        {
          "internalType": "address",
          "name": "patId",
          "type": "address"
        }
      ],
      "name": "isValidPatient",
      "outputs": [
        {
          "internalType": "bool",
          "name": "",
          "type": "bool"
        }
      ],
      "stateMutability": "view",
      "type": "function",
      "constant": true
    }
  ],
  "bytecode": "0x608060405233600260006101000a81548173ffffffffffffffffffffffffffffffffffffffff021916908373ffffffffffffffffffffffffffffffffffffffff16021790555034801561005157600080fd5b50611d0a806100616000396000f3fe608060405234801561001057600080fd5b50600436106100935760003560e01c8063b5368e2011610066578063b5368e2014610134578063c51f31161461016d578063cd25d7be1461019d578063d201256d146101d6578063e07f44441461020657610093565b80632398ec43146100985780638da5cb5b146100c857806391fdfba0146100e6578063941bf5e114610116575b600080fd5b6100b260048036038101906100ad919061173a565b610224565b6040516100bf91906118d7565b60405180910390f35b6100d06104b7565b6040516100dd91906118d7565b60405180910390f35b61010060048036038101906100fb9190611928565b6104dd565b60405161010d91906118d7565b60405180910390f35b61011e610525565b60405161012b9190611964565b60405180910390f35b61014e6004803603810190610149919061197f565b610532565b6040516101649a99989796959493929190611a34565b60405180910390f35b61018760048036038101906101829190611b01565b610a9a565b6040516101949190611b5c565b60405180910390f35b6101b760048036038101906101b2919061197f565b610b26565b6040516101cd9a99989796959493929190611b77565b60405180910390f35b6101f060048036038101906101eb919061197f565b610f72565b6040516101fd9190611b5c565b60405180910390f35b61020e6114d9565b60405161021b9190611964565b60405180910390f35b6000806040518061014001604052808c73ffffffffffffffffffffffffffffffffffffffff1681526020018b81526020018a81526020018981526020018881526020018781526020018681526020018581526020018473ffffffffffffffffffffffffffffffffffffffff16815260200160028152509050806000808d73ffffffffffffffffffffffffffffffffffffffff1673ffffffffffffffffffffffffffffffffffffffff16815260200190815260200160002060008201518160000160006101000a81548173ffffffffffffffffffffffffffffffffffffffff021916908373ffffffffffffffffffffffffffffffffffffffff160217905550602082015181600101908051906020019061033e9291906114df565b50604082015181600201908051906020019061035b9291906114df565b5060608201518160030190805190602001906103789291906114df565b5060808201518160040190805190602001906103959291906114df565b5060a08201518160050190805190602001906103b29291906114df565b5060c08201518160060190805190602001906103cf9291906114df565b5060e08201518160070190805190602001906103ec9291906114df565b506101008201518160080160006101000a81548173ffffffffffffffffffffffffffffffffffffffff021916908373ffffffffffffffffffffffffffffffffffffffff160217905550610120820151816009015590505060018b9080600181540180825580915050600190039060005260206000200160009091909190916101000a81548173ffffffffffffffffffffffffffffffffffffffff021916908373ffffffffffffffffffffffffffffffffffffffff1602179055508a9150509998505050505050505050565b600260009054906101000a900473ffffffffffffffffffffffffffffffffffffffff1681565b6000600182815481106104f3576104f2611c44565b5b9060005260206000200160009054906101000a900473ffffffffffffffffffffffffffffffffffffffff169050919050565b6000600180549050905090565b6000606080606080606080600080606060008060008d73ffffffffffffffffffffffffffffffffffffffff1673ffffffffffffffffffffffffffffffffffffffff168152602001908152602001600020604051806101400160405290816000820160009054906101000a900473ffffffffffffffffffffffffffffffffffffffff1673ffffffffffffffffffffffffffffffffffffffff1673ffffffffffffffffffffffffffffffffffffffff1681526020016001820180546105f490611ca2565b80601f016020809104026020016040519081016040528092919081815260200182805461062090611ca2565b801561066d5780601f106106425761010080835404028352916020019161066d565b820191906000526020600020905b81548152906001019060200180831161065057829003601f168201915b5050505050815260200160028201805461068690611ca2565b80601f01602080910402602001604051908101604052809291908181526020018280546106b290611ca2565b80156106ff5780601f106106d4576101008083540402835291602001916106ff565b820191906000526020600020905b8154815290600101906020018083116106e257829003601f168201915b5050505050815260200160038201805461071890611ca2565b80601f016020809104026020016040519081016040528092919081815260200182805461074490611ca2565b80156107915780601f1061076657610100808354040283529160200191610791565b820191906000526020600020905b81548152906001019060200180831161077457829003601f168201915b505050505081526020016004820180546107aa90611ca2565b80601f01602080910402602001604051908101604052809291908181526020018280546107d690611ca2565b80156108235780601f106107f857610100808354040283529160200191610823565b820191906000526020600020905b81548152906001019060200180831161080657829003601f168201915b5050505050815260200160058201805461083c90611ca2565b80601f016020809104026020016040519081016040528092919081815260200182805461086890611ca2565b80156108b55780601f1061088a576101008083540402835291602001916108b5565b820191906000526020600020905b81548152906001019060200180831161089857829003601f168201915b505050505081526020016006820180546108ce90611ca2565b80601f01602080910402602001604051908101604052809291908181526020018280546108fa90611ca2565b80156109475780601f1061091c57610100808354040283529160200191610947565b820191906000526020600020905b81548152906001019060200180831161092a57829003601f168201915b5050505050815260200160078201805461096090611ca2565b80601f016020809104026020016040519081016040528092919081815260200182805461098c90611ca2565b80156109d95780601f106109ae576101008083540402835291602001916109d9565b820191906000526020600020905b8154815290600101906020018083116109bc57829003601f168201915b505050505081526020016008820160009054906101000a900473ffffffffffffffffffffffffffffffffffffffff1673ffffffffffffffffffffffffffffffffffffffff1673ffffffffffffffffffffffffffffffffffffffff1681526020016009820154815250509050806000015181602001518260400151836060015184608001518560a001518660c001518761010001518861012001518960e001519a509a509a509a509a509a509a509a509a509a50509193959799509193959799565b6000816000808573ffffffffffffffffffffffffffffffffffffffff1673ffffffffffffffffffffffffffffffffffffffff16815260200190815260200160002060080160006101000a81548173ffffffffffffffffffffffffffffffffffffffff021916908373ffffffffffffffffffffffffffffffffffffffff1602179055506001905092915050565b60006020528060005260406000206000915090508060000160009054906101000a900473ffffffffffffffffffffffffffffffffffffffff1690806001018054610b6f90611ca2565b80601f0160208091040260200160405190810160405280929190818152602001828054610b9b90611ca2565b8015610be85780601f10610bbd57610100808354040283529160200191610be8565b820191906000526020600020905b815481529060010190602001808311610bcb57829003601f168201915b505050505090806002018054610bfd90611ca2565b80601f0160208091040260200160405190810160405280929190818152602001828054610c2990611ca2565b8015610c765780601f10610c4b57610100808354040283529160200191610c76565b820191906000526020600020905b815481529060010190602001808311610c5957829003601f168201915b505050505090806003018054610c8b90611ca2565b80601f0160208091040260200160405190810160405280929190818152602001828054610cb790611ca2565b8015610d045780601f10610cd957610100808354040283529160200191610d04565b820191906000526020600020905b815481529060010190602001808311610ce757829003601f168201915b505050505090806004018054610d1990611ca2565b80601f0160208091040260200160405190810160405280929190818152602001828054610d4590611ca2565b8015610d925780601f10610d6757610100808354040283529160200191610d92565b820191906000526020600020905b815481529060010190602001808311610d7557829003601f168201915b505050505090806005018054610da790611ca2565b80601f0160208091040260200160405190810160405280929190818152602001828054610dd390611ca2565b8015610e205780601f10610df557610100808354040283529160200191610e20565b820191906000526020600020905b815481529060010190602001808311610e0357829003601f168201915b505050505090806006018054610e3590611ca2565b80601f0160208091040260200160405190810160405280929190818152602001828054610e6190611ca2565b8015610eae5780601f10610e8357610100808354040283529160200191610eae565b820191906000526020600020905b815481529060010190602001808311610e9157829003601f168201915b505050505090806007018054610ec390611ca2565b80601f0160208091040260200160405190810160405280929190818152602001828054610eef90611ca2565b8015610f3c5780601f10610f1157610100808354040283529160200191610f3c565b820191906000526020600020905b815481529060010190602001808311610f1f57829003601f168201915b5050505050908060080160009054906101000a900473ffffffffffffffffffffffffffffffffffffffff1690806009015490508a565b6000806001805490501415610f8a57600090506114d4565b60008060008473ffffffffffffffffffffffffffffffffffffffff1673ffffffffffffffffffffffffffffffffffffffff168152602001908152602001600020604051806101400160405290816000820160009054906101000a900473ffffffffffffffffffffffffffffffffffffffff1673ffffffffffffffffffffffffffffffffffffffff1673ffffffffffffffffffffffffffffffffffffffff16815260200160018201805461103c90611ca2565b80601f016020809104026020016040519081016040528092919081815260200182805461106890611ca2565b80156110b55780601f1061108a576101008083540402835291602001916110b5565b820191906000526020600020905b81548152906001019060200180831161109857829003601f168201915b505050505081526020016002820180546110ce90611ca2565b80601f01602080910402602001604051908101604052809291908181526020018280546110fa90611ca2565b80156111475780601f1061111c57610100808354040283529160200191611147565b820191906000526020600020905b81548152906001019060200180831161112a57829003601f168201915b5050505050815260200160038201805461116090611ca2565b80601f016020809104026020016040519081016040528092919081815260200182805461118c90611ca2565b80156111d95780601f106111ae576101008083540402835291602001916111d9565b820191906000526020600020905b8154815290600101906020018083116111bc57829003601f168201915b505050505081526020016004820180546111f290611ca2565b80601f016020809104026020016040519081016040528092919081815260200182805461121e90611ca2565b801561126b5780601f106112405761010080835404028352916020019161126b565b820191906000526020600020905b81548152906001019060200180831161124e57829003601f168201915b5050505050815260200160058201805461128490611ca2565b80601f01602080910402602001604051908101604052809291908181526020018280546112b090611ca2565b80156112fd5780601f106112d2576101008083540402835291602001916112fd565b820191906000526020600020905b8154815290600101906020018083116112e057829003601f168201915b5050505050815260200160068201805461131690611ca2565b80601f016020809104026020016040519081016040528092919081815260200182805461134290611ca2565b801561138f5780601f106113645761010080835404028352916020019161138f565b820191906000526020600020905b81548152906001019060200180831161137257829003601f168201915b505050505081526020016007820180546113a890611ca2565b80601f01602080910402602001604051908101604052809291908181526020018280546113d490611ca2565b80156114215780601f106113f657610100808354040283529160200191611421565b820191906000526020600020905b81548152906001019060200180831161140457829003601f168201915b505050505081526020016008820160009054906101000a900473ffffffffffffffffffffffffffffffffffffffff1673ffffffffffffffffffffffffffffffffffffffff1673ffffffffffffffffffffffffffffffffffffffff16815260200160098201548152505090508273ffffffffffffffffffffffffffffffffffffffff16816000015173ffffffffffffffffffffffffffffffffffffffff1614156114ce5760019150506114d4565b60009150505b919050565b60035481565b8280546114eb90611ca2565b90600052602060002090601f01602090048101928261150d5760008555611554565b82601f1061152657805160ff1916838001178555611554565b82800160010185558215611554579182015b82811115611553578251825591602001919060010190611538565b5b5090506115619190611565565b5090565b5b8082111561157e576000816000905550600101611566565b5090565b6000604051905090565b600080fd5b600080fd5b600073ffffffffffffffffffffffffffffffffffffffff82169050919050565b60006115c182611596565b9050919050565b6115d1816115b6565b81146115dc57600080fd5b50565b6000813590506115ee816115c8565b92915050565b600080fd5b600080fd5b6000601f19601f8301169050919050565b7f4e487b7100000000000000000000000000000000000000000000000000000000600052604160045260246000fd5b611647826115fe565b810181811067ffffffffffffffff821117156116665761166561160f565b5b80604052505050565b6000611679611582565b9050611685828261163e565b919050565b600067ffffffffffffffff8211156116a5576116a461160f565b5b6116ae826115fe565b9050602081019050919050565b82818337600083830152505050565b60006116dd6116d88461168a565b61166f565b9050828152602081018484840111156116f9576116f86115f9565b5b6117048482856116bb565b509392505050565b600082601f830112611721576117206115f4565b5b81356117318482602086016116ca565b91505092915050565b60008060008060008060008060006101208a8c03121561175d5761175c61158c565b5b600061176b8c828d016115df565b99505060208a013567ffffffffffffffff81111561178c5761178b611591565b5b6117988c828d0161170c565b98505060408a013567ffffffffffffffff8111156117b9576117b8611591565b5b6117c58c828d0161170c565b97505060608a013567ffffffffffffffff8111156117e6576117e5611591565b5b6117f28c828d0161170c565b96505060808a013567ffffffffffffffff81111561181357611812611591565b5b61181f8c828d0161170c565b95505060a08a013567ffffffffffffffff8111156118405761183f611591565b5b61184c8c828d0161170c565b94505060c08a013567ffffffffffffffff81111561186d5761186c611591565b5b6118798c828d0161170c565b93505060e08a013567ffffffffffffffff81111561189a57611899611591565b5b6118a68c828d0161170c565b9250506101006118b88c828d016115df565b9150509295985092959850929598565b6118d1816115b6565b82525050565b60006020820190506118ec60008301846118c8565b92915050565b6000819050919050565b611905816118f2565b811461191057600080fd5b50565b600081359050611922816118fc565b92915050565b60006020828403121561193e5761193d61158c565b5b600061194c84828501611913565b91505092915050565b61195e816118f2565b82525050565b60006020820190506119796000830184611955565b92915050565b6000602082840312156119955761199461158c565b5b60006119a3848285016115df565b91505092915050565b600081519050919050565b600082825260208201905092915050565b60005b838110156119e65780820151818401526020810190506119cb565b838111156119f5576000848401525b50505050565b6000611a06826119ac565b611a1081856119b7565b9350611a208185602086016119c8565b611a29816115fe565b840191505092915050565b600061014082019050611a4a600083018d6118c8565b8181036020830152611a5c818c6119fb565b90508181036040830152611a70818b6119fb565b90508181036060830152611a84818a6119fb565b90508181036080830152611a9881896119fb565b905081810360a0830152611aac81886119fb565b905081810360c0830152611ac081876119fb565b9050611acf60e08301866118c8565b611add610100830185611955565b818103610120830152611af081846119fb565b90509b9a5050505050505050505050565b60008060408385031215611b1857611b1761158c565b5b6000611b26858286016115df565b9250506020611b37858286016115df565b9150509250929050565b60008115159050919050565b611b5681611b41565b82525050565b6000602082019050611b716000830184611b4d565b92915050565b600061014082019050611b8d600083018d6118c8565b8181036020830152611b9f818c6119fb565b90508181036040830152611bb3818b6119fb565b90508181036060830152611bc7818a6119fb565b90508181036080830152611bdb81896119fb565b905081810360a0830152611bef81886119fb565b905081810360c0830152611c0381876119fb565b905081810360e0830152611c1781866119fb565b9050611c276101008301856118c8565b611c35610120830184611955565b9b9a5050505050505050505050565b7f4e487b7100000000000000000000000000000000000000000000000000000000600052603260045260246000fd5b7f4e487b7100000000000000000000000000000000000000000000000000000000600052602260045260246000fd5b60006002820490506001821680611cba57607f821691505b60208210811415611cce57611ccd611c73565b5b5091905056fea2646970667358221220e2a3db80db614ac016c1fea630ca9f7a5ec27bf4b782bfa3a9c5332242fcd78964736f6c634300080a0033",
  "immutableReferences": {},
  "source": "// SPDX-License-Identifier: MIT\npragma solidity >=0.4.22 <0.9.0;\n\ncontract Patient {\n    mapping  (address=>PatientData) public allPatients;\n    address[] allPatientAddress;\n    address public owner = msg.sender;\n    uint public patientId;\n\n  function getPatientId(uint i) public view returns (address) {\n    return allPatientAddress[i];\n  }\n  \n  function addPatient(address pId,string memory name,string memory age,string memory gender,string memory bloodGrp,string memory addr,string memory device_id,string memory hosp,address doctor) public returns(address){\n      PatientData memory Pdata=PatientData(pId,name,age,gender,bloodGrp,addr,device_id,hosp,doctor,2);\n      allPatients[pId]=(Pdata);\n      allPatientAddress.push(pId);\n      return pId;\n  }\n\n function getPatient(address  patId) public view returns ( address ,string memory  ,string memory ,string memory ,string memory ,string memory ,string memory,address,uint,string memory ) {\n     PatientData memory Pdata=allPatients[patId];\n     return ( Pdata._id,Pdata.patientName,Pdata.age,Pdata.gender,Pdata.bloodGroup,Pdata.Address,Pdata.device_id,Pdata.doctorAssigned,Pdata.role,Pdata.hospital);\n }\n\n function totalPatientsLength()public view returns (uint ){\n     return  allPatientAddress.length;\n }\n\n function editPatientData(address pid,address docId) public returns (bool){\n     allPatients[pid].doctorAssigned=docId;\n     return true;\n }\n\n function isValidPatient(address patId) public view returns(bool){\n     if(allPatientAddress.length==0) return false;\n     PatientData memory pData=allPatients[patId];\n     if(pData._id==patId) return true;\n     else return false;\n }\n \n}\n\n\nstruct PatientData {\n    address _id;\n    string patientName;\n    string age;\n    string gender;\n    string bloodGroup;\n    string Address;\n    string device_id;\n    string hospital;\n    address doctorAssigned;\n    uint role;\n}\n\n/* \n\n1001:[\n    {\n        uint _id;\n    string patientName;\n    string age;\n    string gender;\n    string bloodGroup;\n    string Address;\n    string hospital;\n    string device_id;\n        }\n]\n\n*/",
  "sourcePath": "D:\\Health BlockChain\\contracts\\contracts\\Patient.sol",
  "compiler": {
    "name": "solc",
    "version": "0.8.10+commit.fc410830.Emscripten.clang"
  },
  "schemaVersion": "3.4.7",
  "updatedAt": "2022-06-05T09:41:01.797Z",
  "networkType": "ethereum",
  "devdoc": {
    "kind": "dev",
    "methods": {},
    "version": 1
  },
  "userdoc": {
    "kind": "user",
    "methods": {},
    "version": 1
  }
}