{
  "contractName": "Patient",
  "abi": [
    {
      "inputs": [],
      "name": "owner",
      "outputs": [
        {
          "internalType": "address",
          "name": "",
          "type": "address"
        }
      ],
      "stateMutability": "view",
      "type": "function",
      "constant": true
    },
    {
      "inputs": [],
      "name": "patientId",
      "outputs": [
        {
          "internalType": "uint256",
          "name": "",
          "type": "uint256"
        }
      ],
      "stateMutability": "view",
      "type": "function",
      "constant": true
    },
    {
      "inputs": [],
      "name": "getPatientId",
      "outputs": [
        {
          "internalType": "uint256",
          "name": "",
          "type": "uint256"
        }
      ],
      "stateMutability": "nonpayable",
      "type": "function"
    },
    {
      "inputs": [
        {
          "internalType": "address",
          "name": "pId",
          "type": "address"
        },
        {
          "internalType": "string",
          "name": "name",
          "type": "string"
        },
        {
          "internalType": "string",
          "name": "age",
          "type": "string"
        },
        {
          "internalType": "string",
          "name": "gender",
          "type": "string"
        },
        {
          "internalType": "string",
          "name": "bloodGrp",
          "type": "string"
        },
        {
          "internalType": "string",
          "name": "hosp",
          "type": "string"
        },
        {
          "internalType": "string",
          "name": "addr",
          "type": "string"
        },
        {
          "internalType": "string",
          "name": "device_id",
          "type": "string"
        },
        {
          "internalType": "string",
          "name": "doctor",
          "type": "string"
        }
      ],
      "name": "addPatient",
      "outputs": [
        {
          "internalType": "address",
          "name": "",
          "type": "address"
        }
      ],
      "stateMutability": "nonpayable",
      "type": "function"
    },
    {
      "inputs": [
        {
          "internalType": "address",
          "name": "patId",
          "type": "address"
        }
      ],
      "name": "getPatient",
      "outputs": [
        {
          "internalType": "address",
          "name": "",
          "type": "address"
        },
        {
          "internalType": "string",
          "name": "",
          "type": "string"
        },
        {
          "internalType": "string",
          "name": "",
          "type": "string"
        },
        {
          "internalType": "string",
          "name": "",
          "type": "string"
        },
        {
          "internalType": "string",
          "name": "",
          "type": "string"
        },
        {
          "internalType": "string",
          "name": "",
          "type": "string"
        },
        {
          "internalType": "string",
          "name": "",
          "type": "string"
        },
        {
          "internalType": "string",
          "name": "",
          "type": "string"
        },
        {
          "internalType": "string",
          "name": "",
          "type": "string"
        },
        {
          "internalType": "uint256",
          "name": "",
          "type": "uint256"
        }
      ],
      "stateMutability": "view",
      "type": "function",
      "constant": true
    },
    {
      "inputs": [
        {
          "internalType": "address",
          "name": "patId",
          "type": "address"
        }
      ],
      "name": "isValidPatient",
      "outputs": [
        {
          "internalType": "bool",
          "name": "",
          "type": "bool"
        }
      ],
      "stateMutability": "view",
      "type": "function",
      "constant": true
    }
  ],
  "bytecode": "0x608060405233600160006101000a81548173ffffffffffffffffffffffffffffffffffffffff021916908373ffffffffffffffffffffffffffffffffffffffff16021790555034801561005157600080fd5b506115f4806100616000396000f3fe608060405234801561001057600080fd5b50600436106100625760003560e01c80638da5cb5b14610067578063b5368e2014610085578063d201256d146100be578063db49021c146100ee578063e07f44441461011e578063e68798791461013c575b600080fd5b61006f61015a565b60405161007c9190610fa7565b60405180910390f35b61009f600480360381019061009a9190611002565b610180565b6040516100b59a999897969594939291906110e1565b60405180910390f35b6100d860048036038101906100d39190611002565b610723565b6040516100e591906111d0565b60405180910390f35b61010860048036038101906101039190611320565b610caf565b6040516101159190610fa7565b60405180910390f35b610126610e9f565b60405161013391906114ca565b60405180910390f35b610144610ea5565b60405161015191906114ca565b60405180910390f35b600160009054906101000a900473ffffffffffffffffffffffffffffffffffffffff1681565b60006060806060806060806060806000806000808d73ffffffffffffffffffffffffffffffffffffffff1673ffffffffffffffffffffffffffffffffffffffff168152602001908152602001600020604051806101400160405290816000820160009054906101000a900473ffffffffffffffffffffffffffffffffffffffff1673ffffffffffffffffffffffffffffffffffffffff1673ffffffffffffffffffffffffffffffffffffffff16815260200160018201805461024190611514565b80601f016020809104026020016040519081016040528092919081815260200182805461026d90611514565b80156102ba5780601f1061028f576101008083540402835291602001916102ba565b820191906000526020600020905b81548152906001019060200180831161029d57829003601f168201915b505050505081526020016002820180546102d390611514565b80601f01602080910402602001604051908101604052809291908181526020018280546102ff90611514565b801561034c5780601f106103215761010080835404028352916020019161034c565b820191906000526020600020905b81548152906001019060200180831161032f57829003601f168201915b5050505050815260200160038201805461036590611514565b80601f016020809104026020016040519081016040528092919081815260200182805461039190611514565b80156103de5780601f106103b3576101008083540402835291602001916103de565b820191906000526020600020905b8154815290600101906020018083116103c157829003601f168201915b505050505081526020016004820180546103f790611514565b80601f016020809104026020016040519081016040528092919081815260200182805461042390611514565b80156104705780601f1061044557610100808354040283529160200191610470565b820191906000526020600020905b81548152906001019060200180831161045357829003601f168201915b5050505050815260200160058201805461048990611514565b80601f01602080910402602001604051908101604052809291908181526020018280546104b590611514565b80156105025780601f106104d757610100808354040283529160200191610502565b820191906000526020600020905b8154815290600101906020018083116104e557829003601f168201915b5050505050815260200160068201805461051b90611514565b80601f016020809104026020016040519081016040528092919081815260200182805461054790611514565b80156105945780601f1061056957610100808354040283529160200191610594565b820191906000526020600020905b81548152906001019060200180831161057757829003601f168201915b505050505081526020016007820180546105ad90611514565b80601f01602080910402602001604051908101604052809291908181526020018280546105d990611514565b80156106265780601f106105fb57610100808354040283529160200191610626565b820191906000526020600020905b81548152906001019060200180831161060957829003601f168201915b5050505050815260200160088201805461063f90611514565b80601f016020809104026020016040519081016040528092919081815260200182805461066b90611514565b80156106b85780601f1061068d576101008083540402835291602001916106b8565b820191906000526020600020905b81548152906001019060200180831161069b57829003601f168201915b505050505081526020016009820154815250509050806000015181602001518260400151836060015184608001518560a001518660c001518760e001518861010001518961012001519a509a509a509a509a509a509a509a509a509a50509193959799509193959799565b6000806000808473ffffffffffffffffffffffffffffffffffffffff1673ffffffffffffffffffffffffffffffffffffffff168152602001908152602001600020604051806101400160405290816000820160009054906101000a900473ffffffffffffffffffffffffffffffffffffffff1673ffffffffffffffffffffffffffffffffffffffff1673ffffffffffffffffffffffffffffffffffffffff1681526020016001820180546107d690611514565b80601f016020809104026020016040519081016040528092919081815260200182805461080290611514565b801561084f5780601f106108245761010080835404028352916020019161084f565b820191906000526020600020905b81548152906001019060200180831161083257829003601f168201915b5050505050815260200160028201805461086890611514565b80601f016020809104026020016040519081016040528092919081815260200182805461089490611514565b80156108e15780601f106108b6576101008083540402835291602001916108e1565b820191906000526020600020905b8154815290600101906020018083116108c457829003601f168201915b505050505081526020016003820180546108fa90611514565b80601f016020809104026020016040519081016040528092919081815260200182805461092690611514565b80156109735780601f1061094857610100808354040283529160200191610973565b820191906000526020600020905b81548152906001019060200180831161095657829003601f168201915b5050505050815260200160048201805461098c90611514565b80601f01602080910402602001604051908101604052809291908181526020018280546109b890611514565b8015610a055780601f106109da57610100808354040283529160200191610a05565b820191906000526020600020905b8154815290600101906020018083116109e857829003601f168201915b50505050508152602001600582018054610a1e90611514565b80601f0160208091040260200160405190810160405280929190818152602001828054610a4a90611514565b8015610a975780601f10610a6c57610100808354040283529160200191610a97565b820191906000526020600020905b815481529060010190602001808311610a7a57829003601f168201915b50505050508152602001600682018054610ab090611514565b80601f0160208091040260200160405190810160405280929190818152602001828054610adc90611514565b8015610b295780601f10610afe57610100808354040283529160200191610b29565b820191906000526020600020905b815481529060010190602001808311610b0c57829003601f168201915b50505050508152602001600782018054610b4290611514565b80601f0160208091040260200160405190810160405280929190818152602001828054610b6e90611514565b8015610bbb5780601f10610b9057610100808354040283529160200191610bbb565b820191906000526020600020905b815481529060010190602001808311610b9e57829003601f168201915b50505050508152602001600882018054610bd490611514565b80601f0160208091040260200160405190810160405280929190818152602001828054610c0090611514565b8015610c4d5780601f10610c2257610100808354040283529160200191610c4d565b820191906000526020600020905b815481529060010190602001808311610c3057829003601f168201915b5050505050815260200160098201548152505090508273ffffffffffffffffffffffffffffffffffffffff16816000015173ffffffffffffffffffffffffffffffffffffffff161415610ca4576001915050610caa565b60009150505b919050565b6000806040518061014001604052808c73ffffffffffffffffffffffffffffffffffffffff1681526020018b81526020018a815260200189815260200188815260200187815260200186815260200185815260200184815260200160028152509050806000808d73ffffffffffffffffffffffffffffffffffffffff1673ffffffffffffffffffffffffffffffffffffffff16815260200190815260200160002060008201518160000160006101000a81548173ffffffffffffffffffffffffffffffffffffffff021916908373ffffffffffffffffffffffffffffffffffffffff1602179055506020820151816001019080519060200190610db3929190610ec3565b506040820151816002019080519060200190610dd0929190610ec3565b506060820151816003019080519060200190610ded929190610ec3565b506080820151816004019080519060200190610e0a929190610ec3565b5060a0820151816005019080519060200190610e27929190610ec3565b5060c0820151816006019080519060200190610e44929190610ec3565b5060e0820151816007019080519060200190610e61929190610ec3565b50610100820151816008019080519060200190610e7f929190610ec3565b5061012082015181600901559050508a9150509998505050505050505050565b60025481565b600060026000815480929190610eba90611575565b91905055905090565b828054610ecf90611514565b90600052602060002090601f016020900481019282610ef15760008555610f38565b82601f10610f0a57805160ff1916838001178555610f38565b82800160010185558215610f38579182015b82811115610f37578251825591602001919060010190610f1c565b5b509050610f459190610f49565b5090565b5b80821115610f62576000816000905550600101610f4a565b5090565b600073ffffffffffffffffffffffffffffffffffffffff82169050919050565b6000610f9182610f66565b9050919050565b610fa181610f86565b82525050565b6000602082019050610fbc6000830184610f98565b92915050565b6000604051905090565b600080fd5b600080fd5b610fdf81610f86565b8114610fea57600080fd5b50565b600081359050610ffc81610fd6565b92915050565b60006020828403121561101857611017610fcc565b5b600061102684828501610fed565b91505092915050565b600081519050919050565b600082825260208201905092915050565b60005b8381101561106957808201518184015260208101905061104e565b83811115611078576000848401525b50505050565b6000601f19601f8301169050919050565b600061109a8261102f565b6110a4818561103a565b93506110b481856020860161104b565b6110bd8161107e565b840191505092915050565b6000819050919050565b6110db816110c8565b82525050565b6000610140820190506110f7600083018d610f98565b8181036020830152611109818c61108f565b9050818103604083015261111d818b61108f565b90508181036060830152611131818a61108f565b90508181036080830152611145818961108f565b905081810360a0830152611159818861108f565b905081810360c083015261116d818761108f565b905081810360e0830152611181818661108f565b9050818103610100830152611196818561108f565b90506111a66101208301846110d2565b9b9a5050505050505050505050565b60008115159050919050565b6111ca816111b5565b82525050565b60006020820190506111e560008301846111c1565b92915050565b600080fd5b600080fd5b7f4e487b7100000000000000000000000000000000000000000000000000000000600052604160045260246000fd5b61122d8261107e565b810181811067ffffffffffffffff8211171561124c5761124b6111f5565b5b80604052505050565b600061125f610fc2565b905061126b8282611224565b919050565b600067ffffffffffffffff82111561128b5761128a6111f5565b5b6112948261107e565b9050602081019050919050565b82818337600083830152505050565b60006112c36112be84611270565b611255565b9050828152602081018484840111156112df576112de6111f0565b5b6112ea8482856112a1565b509392505050565b600082601f830112611307576113066111eb565b5b81356113178482602086016112b0565b91505092915050565b60008060008060008060008060006101208a8c03121561134357611342610fcc565b5b60006113518c828d01610fed565b99505060208a013567ffffffffffffffff81111561137257611371610fd1565b5b61137e8c828d016112f2565b98505060408a013567ffffffffffffffff81111561139f5761139e610fd1565b5b6113ab8c828d016112f2565b97505060608a013567ffffffffffffffff8111156113cc576113cb610fd1565b5b6113d88c828d016112f2565b96505060808a013567ffffffffffffffff8111156113f9576113f8610fd1565b5b6114058c828d016112f2565b95505060a08a013567ffffffffffffffff81111561142657611425610fd1565b5b6114328c828d016112f2565b94505060c08a013567ffffffffffffffff81111561145357611452610fd1565b5b61145f8c828d016112f2565b93505060e08a013567ffffffffffffffff8111156114805761147f610fd1565b5b61148c8c828d016112f2565b9250506101008a013567ffffffffffffffff8111156114ae576114ad610fd1565b5b6114ba8c828d016112f2565b9150509295985092959850929598565b60006020820190506114df60008301846110d2565b92915050565b7f4e487b7100000000000000000000000000000000000000000000000000000000600052602260045260246000fd5b6000600282049050600182168061152c57607f821691505b602082108114156115405761153f6114e5565b5b50919050565b7f4e487b7100000000000000000000000000000000000000000000000000000000600052601160045260246000fd5b6000611580826110c8565b91507fffffffffffffffffffffffffffffffffffffffffffffffffffffffffffffffff8214156115b3576115b2611546565b5b60018201905091905056fea26469706673582212207e20aadb8a04bc0e7e4d6a70cf46a62ae7bf76d5dde4fff9748add5aaa2be36e64736f6c634300080a0033",
  "immutableReferences": {},
  "source": "// SPDX-License-Identifier: MIT\npragma solidity >=0.4.22 <0.9.0;\n\ncontract Patient {\n    mapping(address=>PatientData) allPatients;\n    address public owner = msg.sender;\n      uint public patientId;\n\n  function getPatientId() public returns (uint) {\n    return patientId++;\n  }\n  \n  function addPatient(address pId,string memory name,string memory age,string memory gender,string memory bloodGrp,string memory hosp,string memory addr,string memory device_id,string memory doctor) public returns(address){\n      PatientData memory Pdata=PatientData(pId,name,age,gender,bloodGrp,hosp,addr,device_id,doctor,2);\n      allPatients[pId]=(Pdata);\n      return pId;\n  }\n\n function getPatient(address  patId) public view returns ( address ,string memory  ,string memory ,string memory ,string memory ,string memory ,string memory ,string memory,string memory,uint) {\n     PatientData memory Pdata=allPatients[patId];\n     return ( Pdata._id,Pdata.patientName,Pdata.age,Pdata.gender,Pdata.bloodGroup,Pdata.Address,Pdata.hospital,Pdata.device_id,Pdata.doctorAssigned,Pdata.role);\n }\n\n function isValidPatient(address patId) public view returns(bool){\n     PatientData memory pData=allPatients[patId];\n     if(pData._id==patId) return true;\n     else return false;\n }\n \n}\n\n\nstruct PatientData {\n    address _id;\n    string patientName;\n    string age;\n    string gender;\n    string bloodGroup;\n    string Address;\n    string hospital;\n    string device_id;\n    string doctorAssigned;\n    uint role;\n}\n\n/* \n\n1001:[\n    {\n        uint _id;\n    string patientName;\n    string age;\n    string gender;\n    string bloodGroup;\n    string Address;\n    string hospital;\n    string device_id;\n        }\n]\n\n*/",
  "sourcePath": "D:\\Health BlockChain\\backend\\contracts\\Patient.sol",
  "compiler": {
    "name": "solc",
    "version": "0.8.10+commit.fc410830.Emscripten.clang"
  },
  "schemaVersion": "3.4.7",
  "updatedAt": "2022-04-17T17:58:52.565Z",
  "networkType": "ethereum",
  "devdoc": {
    "kind": "dev",
    "methods": {},
    "version": 1
  },
  "userdoc": {
    "kind": "user",
    "methods": {},
    "version": 1
  }
}